:020000040800F2
:1000000078060020890100088D0100088F01000892
:10001000910100089301000895010008000000000C
:100020000000000000000000000000009701000830
:1000300099010008000000009B0100089D010008D4
:100040009F0100089F0100089F0100089F01000810
:100050009F0100089F0100089F0100089F01000800
:100060009F0100089F0100089F0100089F010008F0
:100070009F0100089F0100089F0100089F010008E0
:100080009F0100089F0100089F0100089F010008D0
:100090009F0100089F0100089F0100089F010008C0
:1000A0009F0100089F0100089F0100089F010008B0
:1000B0009F010008D30500089F0100089F01000868
:1000C0009F0100089F0100089F0100089F01000890
:1000D0009F0100089F0100089F0100089F01000880
:1000E0009F0100089F0100089F01000800F002F82E
:1000F00000F03AF80AA090E8000C82448344AAF188
:100100000107DA4501D100F02FF8AFF2090EBAE885
:100110000F0013F0010F18BFFB1A43F0010318473B
:100120001C0700003C070000103A24BF78C878C1C3
:10013000FAD8520724BF30C830C144BF04680C60ED
:10014000704700000023002400250026103A28BF35
:1001500078C1FBD8520728BF30C148BF0B60704739
:100160001FB51FBD10B510BD00F02EFB1146FFF7E7
:10017000F7FF00F015FB00F04CFB03B4FFF7F2FFB4
:1001800003BC00F053FB000008480047FEE7FEE711
:10019000FEE7FEE7FEE7FEE7FEE7FEE7FEE7FEE737
:1001A00003480449044A054B70470000ED0000086D
:1001B00078000020780600207802002078020020D5
:1001C0004FF0E021096921F004014FF0E0221161B4
:1001D000C21700EB5272C2F3C7029E4B1A70194647
:1001E000097801EB4102C2EBC1114FF6FF7202EA3E
:1001F000C101994A118070470146974A12884A43C3
:100200004FF0E0235A6100229A6101221A6100BF77
:100210004FF0E022106900F001021AB100F48032C0
:10022000002AF5D000224FF0E0231A619A6170474E
:100230000146884A12784A434FF0E0235A6100226F
:100240009A6101221A6100BF4FF0E022106900F0AC
:1002500001021AB100F48032002AF5D000224FF0DA
:10026000E0231A619A6170477C4A0A4002437C4B42
:100270001A6070470146072323EA01021202784BF5
:100280001B1D18684FF6FF031840764B18431043A8
:10029000734B1B1D186070472DE9F0478046894657
:1002A00014461D462046E11704EB9171C1F3870AFD
:1002B000E11704EB91718910A4EB8101CFB2042006
:1002C00000EBC700C7B22846FFF7D4FFC5F1040012
:1002D00008FA00F60F20284100EA0900064306F05C
:1002E0000F06202C09DA604801680120A040014374
:1002F0004FF0E020C0F800110BE05B48001D0068E3
:10030000A4F1200101228A4010434FF0E021C1F8FE
:100310000401564850F82A0006FA07F108435349E9
:1003200041F82A00BDE8F08700B500205049086177
:10033000C8601420486100208861C86108460068D0
:1003400040F001000860084640684A4908404849B2
:100350004860084600684849084045490860084622
:10036000006820F4802008600846406820F4FE0001
:1003700048600020886000214FF00060FFF774FFA4
:1003800000BD30B504460025FFF7CEFF38480068B1
:1003900040F480303649086000BF35480068400CA2
:1003A0000028FAD04FF4806031494860A01EC4B2E2
:1003B0000846406840EA844048600846406840F487
:1003C000803048602D48006840F032002B490860BA
:1003D0002748006840F080702549086000BF244825
:1003E0000068400E0028FAD02148406840F0020022
:1003F0001F49486005E01E484068C0F3870505F0C6
:100400000305022DF7D130BD30B505460C4618481E
:10041000C06940F002001649C861681E184908808A
:10042000601E091F088016482038008840F001002F
:1004300013492039088012482C38008840F0010008
:100440000F492C39088002231D2203210120FFF7C8
:1004500023FF30BD000000200200002080FFFF1FAE
:1004600008ED00E00000FA0500E100E000E400E033
:10047000001002400000FFF8FFFFF6FE00200240DF
:100480002C040040BF48806940F00400BD498861E9
:100490000846806940F008008861BB48006820F089
:1004A0000F00B94908600846006840F00300086082
:1004B000B5480830006840F48070B34908310860DE
:1004C000B24800680020B14908600846006840F062
:1004D00033300860704710B5002406E04FF4FA701E
:1004E000AB4921F81400601CC4B2082CF6DB4FF4B1
:1004F0007A70FFF781FE002406E04FF47A70A44979
:1005000021F81400601CC4B2082CF6DB4FF47A709A
:10051000FFF772FE002406E040F2DC509C4921F80F
:100520001400601CC4B2082CF6DB4FF47A70FFF79D
:1005300063FE002406E04FF4FA60954921F81400A8
:10054000601CC4B2082CF6DB4FF47A70FFF754FE3F
:10055000002406E040F6C4108D4921F81400601C08
:10056000C4B2082CF6DB4FF47A70FFF745FE002486
:1005700006E04FF4FA60864921F81400601CC4B20A
:10058000082CF6DB4FF47A70FFF736FE002406E005
:1005900040F2DC507E4921F81400601CC4B2082CE3
:1005A000F6DB4FF47A70FFF727FE002406E04FF4E5
:1005B0007A70774921F81400601CC4B2082CF6DB6D
:1005C0004FF47A70FFF718FE10BD411C714A11807C
:1005D000704700B56F481C38008800F00100002803
:1005E0007AD06D480088112811D2DFE800F0BB09ED
:1005F000111D26333C49525F68767F8C95A2AB0073
:1006000001206649086062490888FFF7DEFFA9E01B
:100610000020624908605E49098840F6C412511AF8
:1006200088B2FFF7D2FF9DE001205C49091D0860F8
:1006300057494888FFF7C9FF94E000205749091D32
:1006400008605349498840F6C412511A88B2FFF72E
:10065000BCFF87E001205149083108604C49888877
:10066000FFF7B3FF7EE000204C490831086048499D
:10067000898840F6C412511A88B2FFF7A6FF71E0CC
:10068000012046490C3108604149C888FFF79DFFA9
:1006900068E0002041490C3108603D49C98840F6B6
:1006A000C412511A88B2FFF790FF5BE001203B496A
:1006B0001031086036490889FFF787FF52E00020B3
:1006C0003649103108603249098940F6C412511A7E
:1006D00088B2FFF77AFF45E04AE001202F49143144
:1006E00008602B494889FFF770FF3BE000202B4949
:1006F000143108602649498940F6C412511A88B25B
:10070000FFF763FF2EE001202449183108602049DB
:100710008889FFF75AFF25E000202049183108603A
:100720001B49898940F6C412511A88B2FFF74DFF60
:1007300018E0012019491C3108601549C889FFF7E4
:1007400044FF0FE0002015491C3108601049C98999
:1007500040F6C412511A88B2FFF737FF00200E4945
:10076000088000BF00BF0C480088401C0A49088070
:1007700008481C38008820F0010006491C39088010
:1007800000BD00000010024004080140040C0140BC
:10079000040000202C04004014000020A08121420D
:1007A0000920FFF7EEFD4820FFF70AFD482142F23D
:1007B0001070FFF729FEFFF765FE00BFFFF78BFE05
:1007C000FCE7704770477047754600F02BF8AE465F
:1007D00005006946534620F00700854618B020B54D
:1007E000FFF7DEFCBDE820404FF000064FF00007A9
:1007F0004FF000084FF0000B21F00701AC46ACE8C9
:10080000C009ACE8C009ACE8C009ACE8C0098D4635
:10081000704710B50446AFF300802046BDE8104095
:10082000FFF7ABBC004870471800002001491820B2
:10083000ABBEFEE726000200704700005C0800081F
:1008400000000020180000002801000874080008BB
:1008500018000020600600004401000800000000AD
:10086000DC05DC05DC05DC05DC05DC05DC05DC0580
:040870000100000083
:04000005080000ED02
:00000001FF
