:020000040800F2
:10000000780900204501000815200008FB1C0008A5
:1000100011200008AB0700086D2E0008000000004A
:100020000000000000000000000000008D2000081B
:10003000AD08000800000000172000088F2000080D
:100040005F0100085F0100085F0100085F01000810
:100050005F0100085F0100085F0100085F01000800
:100060005F0100085F0100085F0100085F010008F0
:100070005F0100085F0100085F0100085F010008E0
:100080005F0100085F0100085F0100085F010008D0
:100090005F0100085F0100085F0100085F010008C0
:1000A0005F0100085F0100085F0100085F010008B0
:1000B0005F0100085F0100085F0100085F010008A0
:1000C0005F0100085F0100085F0100085F01000890
:1000D0005F010008792C0008512D00085F0100081D
:1000E0005F0100085F0100085F0100085F01000870
:1000F0005F0100085F0100085F0100085F01000860
:100100005F0100085F0100085F0100085F0100084F
:100110005F0100085F0100085F0100085F0100083F
:100120005F0100085F0100085F0100085F0100082F
:10013000DFF80CD000F006FB00480047BD4800087F
:10014000780900200648804706480047FEE7FEE79A
:10015000FEE7FEE7FEE7FEE7FEE7FEE7FEE7FEE777
:10016000F920000831010008202A04DB203A21FA96
:1001700002F00021704721FA02F3D040C2F12002C0
:100180009140084319467047D2B201E000F8012BB4
:10019000491EFBD270470022F6E710B513460A4607
:1001A00004461946FFF7F0FF204610BD2DE9F04D3B
:1001B00081EA030404F0004B21F0004514464FF09F
:1001C000000A23F0004150EA050220D054EA01025F
:1001D0001DD0C5F30A570246C5F31303C1F313003C
:1001E000C1F30A5640F4801543F48013A7EB0608C8
:1001F000101BD64608F2FD3873EB050002D308F158
:10020000010801E092185B41B8F1000F03DA002009
:100210000146BDE8F08D00204FF48011064684466B
:100220000EE0171B73EB050705D3121B63EB0503E9
:1002300006434CEA010C49084FEA300092185B4132
:1002400050EA0107EDD152EA030012D082EA04001D
:1002500083EA0501084305D0101BAB4106D20122F9
:10026000002306E000224FF0004302E06FF001029D
:1002700053101AEB06004CEB085110EB0A0041EB4F
:100280000B01BDE8F04D00F0CFB8C10F80EAE0707F
:100290000844CA079623002100F098B800F00042F5
:1002A00030F000400AD0C10D01F56071C0F31600B6
:1002B00042EA0151C208400711437047002001463D
:1002C0007047000030B5041E71F1000404DB4FF0EC
:1002D0000044404264EB0101141E73F1000405DB8D
:1002E0001C464FF00043524263EB0403994208BF9F
:1002F000904230BD01F0004330B421F0004150EA9B
:10030000010206D00A0DA2F56072C1F31301002AA2
:1003100002DC30BC00207047440F44EAC104C10035
:10032000E01830BC00EBC25000F047B830B50B46C7
:10033000014600202022012409E021FA02F59D4215
:1003400005D303FA02F5491B04FA02F52844151EE9
:10035000A2F10102F1DC30BD2DE9F05F054600207D
:1003600092469B4688460646814640241BE0284626
:10037000414647462246FFF7F7FE53465A46C01A03
:10038000914110D311461846224600F0EDF92D1A7E
:1003900067EB01084F4622460120002100F0E4F9F6
:1003A00017EB00094E41201EA4F10104DFDC484692
:1003B00031462A464346BDE8F09F0029A8BF704752
:1003C000401C490008BF20F00100704710B4B0FA8B
:1003D00080FC00FA0CF050EA010404BF10BC704726
:1003E00049B1CCF1200421FA04F411FA0CF118BF40
:1003F000012121430843A3EB0C01CB1D4FEA00610F
:100400004FEA102042BF002010BC704700EBC350E1
:1004100010440029A4BF10BC7047401C490008BF0D
:1004200020F0010010BC704710B5141E73F10004D9
:1004300008DA401C41F1000192185B411A4301D1D6
:1004400020F0010010BD2DE9F04D92469B4611B100
:10045000B1FA81F202E0B0FA80F22032904600F068
:1004600083F904460F4640EA0A0041EA0B0153466D
:100470005A46084313D0114653EA010019D0C8F177
:1004800040025046FFF770FE05460E46504659465C
:10049000424600F069F9084305D0012004E02046F7
:1004A0003946BDE8F08D0020054346EAE0762C434E
:1004B00037430A986305E40AA0EB08000022FD0A0E
:1004C00044EA47540A3002D500200146E9E7010515
:1004D00010196941DDE9084500196941BDE8F04D91
:1004E000A2E72DE9FE4F804681EA0300C00F0C46CB
:1004F000009021F0004123F00045B8EB0200A94133
:1005000005D24046214690461C460B46024623F043
:100510000040104347D0270DC7F30A00C3F30A5128
:100520000290401A019040286BDAC3F3130040F4A4
:10053000801B0098924620B10023D2EB030A63EBA4
:100540000B0B01985946C0F14002504600F00CF9DF
:1005500006460D4650465946019A00F014F910EB34
:1005600008006141002487EA115284EAE7731A43C4
:1005700040D0009A62B3019A012A4FEA075215DC73
:10058000001B61EB02014FF0004202EA0752CDE985
:100590000042001C41F5801132462B46FFF753FF05
:1005A00003B0BDE8F08F40462146F9E7001B61EB40
:1005B0000201001C41F5801300185B412018A2F5D0
:1005C000001747EB030140EAD570B6196D4111E001
:1005D0006D084FEA360645EAC0754FEA0752001B20
:1005E00061EB0201001C41F5801149084FEA30001F
:1005F0000019514132462B4603B0BDE8F04FFFF7DA
:1006000013BF0098012240000023D0EB020263EBED
:10061000E073009821464FEAE074B8EB000061EB0C
:100620000401E9E783F000435BE781F0004158E70C
:100630002DE9FE4F81EA030404F0004421F000415B
:1006400000944FF0000B23F0004350EA01045ED009
:1006500052EA03045BD0C3F30A54C1F30A552C4495
:10066000A4F2F3340194A0FB0254C1F3130141F44A
:100670008011C3F3130343F4801301FB024400FB16
:10068000034E840A970A44EA815447EA8357A4FB3D
:10069000076802958D0A05FB07854FEA932C04FB3A
:1006A0000C542705029D4FEA065847EA1637B5EB6A
:1006B00008056EEB070C870E920E47EA811742EA97
:1006C0008312A7FB0201B6EB0B0164EB00042B0DB8
:1006D00043EA0C335E1844EB1C50DA465146E7FB04
:1006E0000201C5F313044FEA0B3343EA14534FEAF4
:1006F0000432019C43EA0603A4F10C040294009C1A
:10070000CDE900B4FFF79FFE03B0BDE8F08F0020F5
:100710000146F9E7C1F30A52C1F3130140F2FF3376
:1007200041F480119A4202DA00200146704740F2FB
:1007300033439A42A2F2334202DC5242FFF714BD25
:1007400000F012B8064C074D06E0E06840F00103E7
:1007500094E8070098471034AC42F6D3FFF7ECFC5E
:100760002462000844620008202A04DB203A00FAD0
:1007700002F1002070479140C2F1200320FA03F3F8
:10078000194390407047202A06DBCB17203A41FAE4
:1007900002F043EAE07306E041FA02F3D040C2F10E
:1007A0002002914008431946704700BFFEE7000051
:1007B00010B50C480C4908604FF4E1304860002146
:1007C00009488160C160016181610C21416101F0D2
:1007D0002FF905480068C06840F020000249096808
:1007E000C86010BD00380140D400002000B585B0BD
:1007F00000BF2B48806940F00800294988610846FD
:10080000806900F00800009000BF00BF00BF0846EC
:10081000806940F0200088610846806900F020006F
:10082000009000BF00BF0020029003200490C81475
:10083000019001A91B4800F0A7F94FF480600190D6
:1008400001A9184800F0A0F94FF40070019001A927
:10085000144800F099F94FF48070019001A91148F3
:1008600000F092F94FF40040019001A90E4800F009
:100870008BF94FF48040019001A90B4800F084F9F6
:100880004FF40050019001A9074800F07DF94FF4A2
:100890008050019001A9044800F076F905B000BD30
:1008A0000010024000140140000C0140704700009D
:1008B00001460D4A12884A434FF0E0235A61002254
:1008C0009A6101221A6100BF4FF0E022106900F026
:1008D00001021AB100F48032002AF5D000224FF054
:1008E000E0231A619A6170476C00002001460D4AAE
:1008F00012784A434FF0E0235A6100229A610122A4
:100900001A6100BF4FF0E022106900F001021AB135
:1009100000F48032002AF5D000224FF0E0231A6163
:100920009A6170476A00002000B585B000BF2A4870
:10093000806940F01000284988610846806900F00D
:100940001000009000BF00BF00BF0846806940F063
:10095000100088610846806900F01000009000BF18
:1009600000BF00BF0846806940F01000886108465B
:10097000806900F01000009000BF00BF00BF084673
:10098000806940F0100088610846806900F010001E
:10099000009000BF00BF012002900320049040207F
:1009A000019001A90D4800F0EFF88020019001A905
:1009B0000A4800F0E9F84FF40070019001A90748D7
:1009C00000F0E2F84FF48070019001A9034800F0B4
:1009D000DBF805B000BD000000100240001001402F
:1009E00070B50446002594F82100022803D00420A5
:1009F000A0630125C1E02068006820F00E00216896
:100A000008602068006820F00100216808605C49E7
:100A10002068884252D95A4978392068884201D1E1
:100A2000012047E0564964392068884201D11020EE
:100A300040E0534950392068884201D1801539E09F
:100A40004F493C392068884201D1801432E04C493A
:100A500028392068884202D14FF480302AE0484982
:100A600014392068884202D14FF4801022E04449B2
:100A70002068884201D140041CE042492068884235
:100A800001D1012016E03F4914312068884201D18C
:100A900010200FE03B4928312068884201D18015A1
:100AA00008E038493C312068884201D1801401E0D7
:100AB0004FF480303349091F086051E030497839DC
:100AC0002068884201D1012047E02D49643920681F
:100AD000884201D1102040E02949503920688842DD
:100AE00001D1801539E026493C392068884201D17E
:100AF000801432E0224928392068884202D14FF41C
:100B000080302AE01E4914392068884202D14FF40F
:100B1000801022E01A492068884201D140041CE07C
:100B200018492068884201D1012016E01549143186
:100B30002068884201D110200FE012492831206836
:100B4000884201D1801508E00E493C312068884276
:100B500001D1801401E04FF48030094980394860A8
:100B6000012084F8210000BF002084F8200000BF8D
:100B7000606B10B12046616B8847284670BD00004D
:100B800080000240080402402DE9F8470246002395
:100B90009C467BE14FF0010808FA03F4D1F800808D
:100BA00008EA0400A0427DD1DFF8F4A2D1F8048065
:100BB000A8EB0A09D0453AD014DCB8F1030F50D0A5
:100BC00009DCB8F1000F31D0B8F1010F1CD0B8F139
:100BD000020F49D120E0B8F1110F18D0B8F1120F6F
:100BE00042D11EE0B9F5881F25D006DCB9F5803F5B
:100BF00020D0B9F5801F37D11AE0B9F5001F18D001
:100C0000B9F5041F30D117E0D1F80CC02DE0D1F8B0
:100C10000C8008F1040C28E0D1F80C8008F1080CD5
:100C200023E0D1F80C8008F10C0C1EE000BF00BFDF
:100C300000BF00BF00BF00BFD1F80880B8F1000FAF
:100C400002D14FF0040C0BE0D1F80880B8F1010F8D
:100C500003D14FF0080C146102E04FF0080C54610E
:100C600003E04FF0000C00E000BF00BFFF2801D8F8
:100C7000904601E002F104084646FF2802D84FEAF8
:100C8000830803E0A3F108084FEA88084746D6F82E
:100C900000804FF00F0909FA07F928EA09080CFA51
:100CA00007F900E07AE048EA0908C6F80080D1F8C0
:100CB000048008F08058B8F1805F6FD100BFDFF882
:100CC000E481D8F8188048F00108DFF8D891C9F815
:100CD0001880C846D8F8188008F00108CDF80080C0
:100CE00000BF00BF4FEAB9384FEA930958F82950BE
:100CF0004FEA83784FEA18794FF00F0808FA09F89D
:100D000025EA0805DFF8A081424502D14FF000082E
:100D100024E0DFF89881424502D14FF001081DE040
:100D2000DFF88C81424502D14FF0020816E0DFF86F
:100D30008481424502D14FF003080FE0DFF878814B
:100D4000424502D14FF0040808E0DFF870814245C7
:100D500002D14FF0050801E04FF006084FEA837911
:100D60004FEA197908FA09F848EA0505DFF85081D1
:100D70004FEA930948F82950D1F8048008F48038E4
:100D8000B8F5803F0BD1DFF83C81D8F8008048EA05
:100D90000008DFF83091C9F800800AE075E0DFF85C
:100DA0002481D8F8008028EA0008DFF81891C9F8F3
:100DB0000080D1F8048008F40038B8F5003F0ED167
:100DC000DFF8008108F10408D8F8008048EA00083C
:100DD000DFF8F09009F10409C9F800800DE0DFF8B0
:100DE000E48008F10408D8F8008028EA0008DFF859
:100DF000D49009F10409C9F80080D1F8048008F4FE
:100E00008018B8F5801F0ED1DFF8B88008F1080807
:100E1000D8F8008048EA0008DFF8A89009F108092E
:100E2000C9F800800DE0DFF89C8008F10808D8F8C8
:100E3000008028EA0008DFF88C9009F10809C9F859
:100E40000080D1F8048008F40018B8F5001F0ED116
:100E5000DFF8708008F10C08D8F8008048EA000834
:100E6000DFF8609009F10C09C9F800800DE0DFF8A7
:100E7000548008F10C08D8F8008028EA0008DFF850
:100E8000449009F10C09C9F800805B1CD1F800807E
:100E900028FA03F8B8F1000F7FF47CAEBDE8F887BC
:100EA000000011100010024000080140000C014039
:100EB000001001400014014000180140001C0140D6
:100EC0000800014000040140024693680B400BB14A
:100ED000012000E0002070470AB1016101E00B042D
:100EE000036170470148006870470000040000205B
:100EF00003480068034909780844014908607047BD
:100F0000040000200C00002010B50848006840F0E4
:100F1000100006490860032000F080F80F2000F060
:100F200007F800F02BF8002010BD00000020024060
:100F300070B504460E4800784FF47A71B1FBF0F0BA
:100F40000C490968B1FBF0F5284600F0E3FB08B155
:100F5000012070BD102C07D200222146501E00F047
:100F60001EF80548046001E00120F2E70020F0E7E8
:100F70000C000020000000200800002070470146FF
:100F80000846002809DB00F01F0301229A404309AC
:100F90009B0003F1E023C3F8002100BF70472DE957
:100FA000F05F80460D461646002701F07DFF07469C
:100FB00039462A46334601F00700C0F1070ABAF164
:100FC000040F02D94FF0040A01E0C0F1070AD1462C
:100FD00000F1040ABAF1070F02D24FF0000A01E053
:100FE000A0F1030AD4464FF0010A0AFA09FAAAF15D
:100FF000010A0AEA020A0AFA0CFA4FF0010B0BFA8C
:101000000CFBABF1010B0BEA030B4AEA0B04214684
:10101000404601F051FFBDE8F09F000000BF00F026
:101020000702064B19684FF6FF031940044B0B43A8
:1010300043EA0221014B196000BF70470CED00E04C
:101040000000FA0570B504460D460CB9012070BDCC
:101050005A48006800F00700A8420ED257480068BE
:1010600020F007002843554908600846006800F052
:101070000700A84201D00120E9E7207800F0020033
:1010800002281DD1207800F00400042805D14C4826
:10109000406840F4E0604A494860207800F0080069
:1010A000082805D14648406840F4605044494860EB
:1010B0004348406820F0F000A16808434049486078
:1010C000207800F0010078B36068012806D13C4820
:1010D000006800F4003090B90120B8E76068022889
:1010E00006D13748006800F0007040B90120AEE733
:1010F0003348006800F0020008B90120A7E7304833
:10110000406820F00300616808432D494860FFF7FC
:10111000E9FE064609E0FFF7E5FE801B41F2883153
:10112000884202D9032092E707E02548406800F092
:101130000C006168B0EB810FEDD12048006800F031
:101140000700A8420ED91D48006820F00700284378
:101150001A4908600846006800F00700A84201D05C
:10116000012074E7207800F00400042807D1144817
:10117000406820F4E060E168084311494860207845
:1011800000F00800082808D10D48406820F460509D
:10119000216940EAC1000A49486000F03FF8084967
:1011A0004968C1F30311074A515CC8400649086009
:1011B00006480068FFF7BCFE002048E70020024018
:1011C000001002400C62000800000020080000200F
:1011D00001480068704700000000002000B5FFF7DC
:1011E000F7FF04494968C1F30221034A515CC84032
:1011F00000BD0000001002401C62000800B5FFF7AF
:10120000E7FF04494968C1F3C221034A515CC84061
:1012100000BD0000001002401C620008F0B585B05F
:101220000FF26C0C9CE8E01001A8A0E8E0101CA5EF
:101230002D68009500210022002300240020194D74
:10124000696801F00C05F5B1042D02D0082D19D103
:1012500001E0154819E001ADC1F38346AC5D01F42E
:10126000803555B10F4D6D68C5F340451DF805201B
:101270000D4D6543B5FBF2F302E00C4D04FB05F3A5
:10128000184602E000BF084800BF00BF05B0F0BD2F
:1012900002030405060708090A0B0C0D0E0F1010B7
:1012A000010200000010024000127A0000093D0017
:1012B000F8B504460CB90120F8BD207800F0010013
:1012C000002878D0F848406800F00C0004280CD0C2
:1012D000F548406800F00C00082811D1F248406839
:1012E00000F48030B0F5803F0AD1EF48006800F488
:1012F000003000285FD0606800285CD10120DBE767
:1013000000BF6068B0F5803F06D1E748006840F450
:101310008030E549086028E0606858B9E248006814
:1013200020F48030E04908600846006820F48020FE
:1013300008601AE06068B0F5A02F0BD1DA480068A9
:1013400040F48020D84908600846006840F48030A6
:1013500008600AE0D448006820F48030D249086070
:101360000846006820F48020086000BF606888B1EB
:10137000FFF7B8FD054606E0FFF7B4FD401B642803
:1013800001D9032098E7C848006800F4003000281D
:10139000F2D010E0FFF7A6FD054606E0FFF7A2FD3C
:1013A000401B642801D9032086E7BF48006800F489
:1013B00000300028F2D1207800F00200022857D136
:1013C000B948406800F00C0050B1B748406800F0E0
:1013D0000C00082818D1B448406800F4803098B94F
:1013E000B148006800F0020020B12069012801D056
:1013F000012061E7AC48006820F0F800616940EA2C
:10140000C100A949086033E02069E8B10120A7497B
:101410000860FFF767FD054606E0FFF763FD401B28
:10142000022801D9032047E79F48006800F0020026
:101430000028F2D09C48006820F0F800616940EA7A
:10144000C1009949086013E0002098490860FFF73F
:1014500049FD054606E0FFF745FD401B022801D97E
:10146000032029E79048006800F002000028F2D12C
:10147000207800F0080008282DD1A069B8B101201B
:101480008B490860FFF72EFD054606E0FFF72AFDB1
:10149000401B022801D903200EE78348406A00F070
:1014A00002000028F2D0012000F0B6FD13E0002079
:1014B0007F490860FFF716FD054606E0FFF712FDBD
:1014C000401B022801D90320F6E67748406A00F065
:1014D00002000028F2D1207800F00400042873D123
:1014E00000277148C06900F0805070B900BF6E4895
:1014F000C06940F080506C49C8610846C06900F07E
:101500008050009000BF00BF01276A48006800F4C7
:101510008070B0B96748006840F480706549086021
:10152000FFF7E0FC054606E0FFF7DCFC401B642803
:1015300001D90320C0E65F48006800F480700028ED
:10154000F2D000BFE068012806D15748006A40F099
:1015500001005549086227E0E06858B95248006A1E
:1015600020F00100504908620846006A20F004009B
:10157000086219E0E06805280BD14B48006A40F08A
:101580000400494908620846006A40F00100086208
:101590000AE04548006A20F0010043490862084615
:1015A000006A20F00400086200BFE068A0B1FFF705
:1015B00099FC054609E0FFF795FC401B41F2883194
:1015C000884202D9032077E622E03748006A00F01B
:1015D00002000028EFD012E0FFF784FC054608E087
:1015E000FFF780FC401B41F28831884201D903207B
:1015F00062E62D48006A00F002000028F0D1012FB9
:1016000005D12948C06920F080502749C86100BF32
:10161000E069C8B32448406800F00C00082860D096
:10162000E069022848D1002020490866FFF75AFCEB
:10163000054606E0FFF756FC401B022801D90320AF
:101640003AE61948006800F000700028F2D1206ADC
:10165000B0F5803F07D11448406820F40030A168FD
:10166000084311494860D4E9080108430E49496814
:1016700021F4741108430C49486001200B490866A5
:10168000FFF730FC054607E03DE0FFF72BFC401B71
:10169000022801D903200FE60348006800F000701B
:1016A0000028F2D02FE0000000100240000042426B
:1016B0008004424200700040002014490866FFF791
:1016C00011FC054606E0FFF70DFC401B022801D97E
:1016D0000320F1E50E48006800F000700028F2D108
:1016E00011E0E069012800D1E6E50948466806F402
:1016F0008031206A814204D106F47011606A81420F
:1017000001D00120D8E50020D6E5000000004242CB
:101710000010024070B504462546681EB0F1807F77
:1017200001D301200FE0681E4FF0E02148610F2136
:101730004FF0FF3001F0C0FB00204FF0E021886146
:1017400007200861002070BD70B504460D4616469E
:1017500000BF94F83C00012801D1022070BD012097
:1017600084F83C0000BF022084F83D0036B1042E0E
:101770001BD0082E31D00C2E5ED145E029462068C2
:1017800000F07EFD2068806940F0080021688861D3
:101790002068806920F004002168886120688069E1
:1017A000296908432168886147E02946206800F0DC
:1017B0009FFD2068806940F400602168886120688E
:1017C000806920F4806021688861206880692969C7
:1017D00040EA0120216888612FE02946206800F056
:1017E000C5FD2068C06940F008002168C861206814
:1017F000C06920F004002168C8612068C0692969B7
:1018000008432168C86118E02946206800F0EAFD15
:101810002068C06940F400602168C8612068C06920
:1018200020F480602168C8612068C069296940EAA5
:1018300001202168C86100E000BF00BF012084F8DA
:101840003D0000BF002084F83C0000BF00BF85E7DA
:1018500010B504460CB9012010BD94F83D0028B91C
:10186000002084F83C00204600F00CF8022084F8A8
:101870003D00211D206800F0A3FC012084F83D00FC
:101880000020E9E77047000070B504460E460122CB
:101890003146206800F0E2FC0F492068884203D0FE
:1018A0000E492068884201D1012000E0002028B1C3
:1018B0002068406C40F400402168486420688068DB
:1018C00000F00705062D05D02068006840F00100F3
:1018D00021680860002070BD002C014000340140E8
:1018E000704700002DE9F04704462068056820682D
:1018F000C668206847694FF00008C14605F00F0828
:10190000B8F1000F0AD105F0200038B106F0200030
:1019100020B1204601F022F8BDE8F087B8F1000FB1
:101920006DD007F0010018B906F49070002866D059
:1019300005F0010030B106F4807018B1E06B40F0A2
:101940000100E06305F0040030B107F0010018B1B8
:10195000E06B40F00200E06305F0020030B107F0F8
:10196000010018B1E06B40F00400E06305F00800EE
:1019700030B107F0010018B1E06B40F00800E063FF
:10198000E06B68B305F0200028B106F0200010B12C
:10199000204600F0E3FF20684069C0F38019E06B47
:1019A00000F0080010B9B9F1000F22D0204600F075
:1019B000B5FF2068406900F04000B0B12068406980
:1019C00020F0400021684861606B50B11748616B9E
:1019D0004863606BFFF704F810B1606B416B884798
:1019E0000CE02046FFF77CFF08E02046FFF778FF79
:1019F00004E02046FFF774FF0020E0638CE705F069
:101A0000800030B106F0800018B1204601F0CAF81D
:101A100082E705F0400030B106F0400018B12046E2
:101A200000F08CFF78E700BF76E700000929000886
:101A300010B504460CB9012010BDA06900B100E04A
:101A400000BF94F8390028B9002084F838002046F7
:101A500000F028F8242084F839002068C06820F4B9
:101A600000502168C860204600F0CCFF2068006963
:101A700020F49040216808612068406920F02A0025
:101A8000216848612068C06840F400502168C8603F
:101A90000020E063202084F8390084F83A00002018
:101AA000CAE7000010B586B00446002002900390FB
:101AB0000490059056492068884252D100BF55488D
:101AC000806940F48040534988610846806900F489
:101AD0008040019000BF00BF00BF0846806940F011
:101AE000040088610846806900F00400019000BF8E
:101AF00000BF00BF0846806940F0040088610846C6
:101B0000806900F00400019000BF00BF00BF0846DC
:101B1000806940F0010088610846806900F001009A
:101B2000019000BF00BF48150290022003900120E1
:101B300004900320059002A93748FFF725F84FF4D9
:101B4000806002900020039002A93348FFF71CF840
:101B5000012200212520FFF722FA2520FFF70FFAA6
:101B600054E02E492068884250D100BF2948C069FE
:101B700040F400302749C8610846C06900F40030CD
:101B8000019000BF00BF00BF0846806940F004001C
:101B900088610846806900F00400019000BF00BF22
:101BA00000BF0846806940F00400886108468069EB
:101BB00000F00400019000BF00BF00BF084680692C
:101BC00040F0010088610846806900F00100019042
:101BD00000BF00BF04200290022003900120049067
:101BE0000320059002A90C48FEF7CEFF08200290C2
:101BF0000020039002A90848FEF7C6FF0222002138
:101C00002620FFF7CCF92620FFF7B9F906B010BD62
:101C1000003801400010024000080140004400402C
:101C200070472DE9F84304460D4616461F464FF00F
:101C3000000994F8390020285CD105B116B90120BB
:101C4000BDE8F88300BF94F83800012801D10220D4
:101C5000F6E7012084F8380000BF0020E06321206F
:101C600084F83900FFF73EF98146A684E6842BE02C
:101C7000E08C401EE084A068B0F5805F16D14B4632
:101C8000002280212046009700F0C0FF08B1032009
:101C9000D6E7A846B8F80000C0F3080021684860FD
:101CA000206908B9AD1C0FE06D1C0DE04B46002209
:101CB00080212046009700F0A9FF08B10320BFE76C
:101CC00015F8010B21684860E08C0028D0D14B4604
:101CD000002240212046009700F098FF08B1032021
:101CE000AEE7202084F8390000BF002084F83800D7
:101CF00000BFA5E70220A3E7704700BFFEE7000092
:101D000010B500200F4908600F48006820F47040AB
:101D10000D4908600846006840F440500860002003
:101D20000A49C1F8AC010620FEF7E0FD0120054993
:101D300008600620FEF7DAFD00200449C1F8A8017A
:101D400010BD0000A8812142040C01400080214206
:101D500000B585B000BF1048806940F008000E490A
:101D600088610846806900F00800009000BF00BF4D
:101D70004FF44060019001200290039003200490F2
:101D800001A90648FEF700FF012005490860054942
:101D9000C1F8A80105B000BD00100240000C0140D0
:101DA000AC8121420080214210B500200F4908601B
:101DB0000F48006820F470400D490860084600682C
:101DC00040F44050086001200A49C1F8AC010620E7
:101DD000FEF78CFD0120054908600620FEF786FD10
:101DE00000200449C1F8A80110BD0000A8812142CB
:101DF000040C01400080214270B5054600241748BC
:101E0000006820F47040154908600846006840F4F6
:101E100000400860002616E00020114908600620F6
:101E2000FEF764FD01200F49C1F8A8016006040E09
:101E30000B487C38006808B1601CC4B20520FEF76E
:101E400055FD701CC6B2082EE6DB15B9FFF7ACFFD6
:101E500001E0FFF755FF204670BD0000040C014073
:101E6000A88121420080214270B5044615480068CF
:101E700020F47040134908600846006840F4405060
:101E80000860002010490860002517E0E0090E49AD
:101E9000091D08606006040E0620FEF727FD0120DC
:101EA0000A49C1F8A8010620FEF720FD00200649D6
:101EB00008600620FEF71AFD681CC5B2082DE5DB98
:101EC00070BD0000040C0140A88121420080214225
:101ED00010B50F48006820F470400D4908600846AE
:101EE000006840F44050086001200A4908600A492F
:101EF000C1F8A8010A20FEF7F9FC00200549086096
:101F00000A20FEF7F3FC00200349C1F8A80110BD28
:101F1000040C0140AC8121420080214210B50F48E1
:101F2000006820F470400D4908600846006840F4DD
:101F30004050086000200A4908600A49C1F8AC0115
:101F40000A20FEF7D3FC0120054908600549C1F8C5
:101F5000AC010A20FEF7CAFC10BD0000040C0140D1
:101F6000A88121420080214210B500241548006854
:101F700020F47040134908600846006840F40040AF
:101F800008600120104908600520FEF7AFFC012021
:101F90000E49C1F8A8010520FEF7A8FC07E0601C67
:101FA000C4B2FA2C03DDFFF7B9FF012010BD0648CB
:101FB000803800680028F2D10349091F086000BF7B
:101FC000F4E70000040C0140AC8121420080214272
:101FD0004FF0E021096921F004014FF0E022116186
:101FE000C21700EB5272C2F3C702074B1A701946B0
:101FF000097801EB4102C2EBC1114FF6FF7202EA10
:10200000C101024A118070476A0000206C00002064
:1020100000BFFEE77047704708B508490968C9085E
:102020004FF47A72B1FBF2F14143009100BF00BF5F
:1020300000994A1E00920029F9D108BD0000002035
:1020400010B51048104908604FF416504860002140
:102050000D488160C160016181610C214161FFF720
:10206000E7FC09480068C06840F02000064909689C
:10207000C86005480068C06840F04000024909682F
:10208000C86010BD0044004034030020704710B504
:10209000FEF72EFF10BD00B58FB014210AA8FEF781
:1020A0007AF828216846FEF776F8012000900004AF
:1020B00001900020029002200790C10308914FF484
:1020C000E01109916846FFF7F3F808B100BFFEE799
:1020D0000F200A9002200B9000200C900E904FF4DD
:1020E00080600D9002210AA8FEF7ACFF08B100BF86
:1020F000FEE70FB000BD00001148006840F001008D
:102100000F490860084640680E4908400C4948607D
:10211000084600680C4908400949086008460068FC
:1021200020F4802008600846406820F4FE004860E3
:102130004FF41F008860C80304490860704700001E
:10214000001002400000FFF8FFFFF6FE08ED00E07F
:1021500030B1042808D008280AD00C2810D10BE090
:10216000084A126851630BE0064A1268916307E05F
:10217000044A1268D16303E0024A1268116400BF86
:1021800000BF70473405002030B1042808D008286B
:102190000AD00C2810D10BE0084A126851630BE0FA
:1021A000064A1268916307E0044A1268D16303E0AB
:1021B000024A1268116400BF00BF7047F404002097
:1021C00010B50268204B98420ED0204B98420BD09D
:1021D000B0F1804F08D01E4B984205D01D4B98425D
:1021E00002D01D4B984203D122F070024B681A4373
:1021F000154B98420ED0154B98420BD0B0F1804F42
:1022000008D0134B984205D0124B984202D0124B83
:10221000984203D122F44072CB681A4322F0800323
:102220004C6943EA040202608B68C3620B688362F4
:10223000054B984202D0054B984201D10B690363CC
:102240000123436110BD0000002C01400034014017
:102250000004004000080040000C004030B501F0D0
:102260001F05012404FA05F3046A9C430462046A0E
:1022700001F01F0502FA05F52C43046230BD000091
:1022800030B5056A25F001050562026A4368846974
:1022900024F0700424F003040D682C4322F00202A1
:1022A0008D682A43104DA84200D103E00F4DA8428B
:1022B00006D100BF22F00802CD682A4322F00402B2
:1022C000094DA84202D0094DA84207D123F48073DA
:1022D00023F400734D692B438D692B434360846164
:1022E0004D684563026230BD002C0140003401405E
:1022F00030B5056A25F010050562026A43688469F5
:1023000024F4E04424F440740D6844EA052422F0E7
:1023100020028D6842EA0512124DA84200D103E066
:10232000114DA84207D100BF22F08002CD6842EAD9
:10233000051222F040020B4DA84202D00A4DA842DD
:1023400009D123F4806323F400634D6943EA8503D4
:102350008D6943EA8503436084614D688563026249
:1023600030BD0000002C01400034014030B5056A4A
:1023700025F480750562026A4368C46924F070041C
:1023800024F003040D682C4322F400728D6842EAA5
:102390000522124DA84200D103E0114DA84207D1F9
:1023A00000BF22F40062CD6842EA052222F4806276
:1023B0000A4DA84202D00A4DA84209D123F4805305
:1023C00023F400534D6943EA05138D6943EA05136D
:1023D0004360C4614D68C563026230BD002C01409A
:1023E0000034014030B5056A25F480550562036A62
:1023F0004468C26922F4E04222F440720D6842EA65
:10240000052223F400538D6843EA0533084DA842A2
:1024100002D0084DA84204D124F480444D6944EA16
:1024200085144460C2614D680564036230BD0000DC
:10243000002C01400034014000B589B000BF2148A4
:10244000806940F400601F4988610846806900F493
:102450000060019000BF00BF1B481C49086040F6A7
:102460000F611A48C16001201849486000211748CF
:1024700081600161FFF7ECF9602002904FF4E160A8
:1024800003900020049005904FF480700790002086
:1024900008900690082202A90C48FFF755F9002180
:1024A0000A48FFF7F1F94FF4E16003900C2202A90A
:1024B0000648FFF749F904210448FFF7E5F909B098
:1024C00000BD000000100240002C01403405002037
:1024D00000B589B000BF2148806940F400601F4901
:1024E00088610846806900F40060019000BF00BF69
:1024F0001B481C49086040F60F611A48C160012062
:10250000184948600021174881600161FFF7A0F970
:10251000602002904FF4E160039000200490059049
:102520004FF480700790002008900690002202A9C6
:102530000C48FFF709F900210A48FFF7A5F94FF405
:10254000E1600390042202A90648FFF7FDF8042188
:102550000448FFF799F909B000BD000000100240DF
:10256000002C0140F404002010B500F009F8FFF73A
:10257000AFFF10BD10B500F051F8FFF75DFF10BDC3
:1025800000B585B000BF2248806940F04000204976
:1025900088610846806900F04000009000BF00BFDD
:1025A00000BF0846806940F04000886108468069A5
:1025B00000F04000009000BF00BF00BF08468069E7
:1025C00040F0010088610846806900F00100009039
:1025D00000BF00BF022002900320049000BF0D49FD
:1025E000486820F0C00040F0E06040F0C000486063
:1025F00000BF4815019001A90748FEF7C5FA4FF43E
:102600000060019001A90448FEF7BEFA05B000BDC4
:1026100000100240000001400018014000B585B0E4
:1026200000BF1C48806940F040001A498861084694
:10263000806900F04000009000BF00BF00BF084666
:10264000806940F0400088610846806900F04000E1
:10265000009000BF00BF022002900320049000BF42
:102660000D49486820F0C00040F0E06040F0C00034
:10267000486000BF4814019001A90848FEF784FA99
:102680004FF48040019001A90448FEF77DFA05B09F
:1026900000BD000000100240000001400018014091
:1026A00000B585B000BF9048806940F004008E49B5
:1026B00088610846806900F00400009000BF00BFF8
:1026C00000BF0846806940F00800886108468069BC
:1026D00000F00800009000BF00BF00BF08468069FE
:1026E00040F0200088610846806900F020000090DA
:1026F00000BF00BF00BF0846806940F0400088610D
:102700000846806900F04000009000BF00BF00BF95
:102710000846806940F0800088610846806900F0C2
:102720008000009000BF00BF00BF0846806940F4F1
:10273000807088610846806900F48070009000BF56
:1027400000BF00200290032004901020019001A9F6
:102750006648FEF719FA1020019001A96448FEF7B7
:1027600013FA2020019001A96048FEF70DFA2020FD
:10277000019001A95E48FEF707FA4020019001A9E7
:102780005A48FEF701FA0120019001A95948FEF7C5
:10279000FBF98020019001A95448FEF7F5F90220C9
:1027A000019001A95348FEF7EFF94FF480400190E2
:1027B00001A95148FEF7E8F94FF48060019001A9A2
:1027C0004D48FEF7E1F94FF40050019001A94A4845
:1027D000FEF7DAF94FF40070019001A94648FEF7C0
:1027E000D3F94FF48050019001A94348FEF7CCF98A
:1027F0008020019001A94148FEF7C6F94FF400601E
:10280000019001A93C48FEF7BFF94020019001A9C1
:102810003A48FEF7B9F90820019001A93648FEF7B9
:10282000B3F90420019001A93348FEF7ADF94FF444
:102830000040019001A93148FEF7A6F94FF480400D
:10284000019001A92D48FEF79FF98020019001A970
:102850002948FEF799F94020019001A92648FEF782
:1028600093F92020019001A92348FEF78DF910204B
:10287000019001A92048FEF787F94FF4005001901C
:1028800001A91F48FEF780F94FF48040019001A98B
:102890001B48FEF779F94FF40040019001A9184850
:1028A000FEF772F90120019001A91348FEF76CF9B7
:1028B0000220019001A91048FEF766F980200190DE
:1028C00001A91048FEF760F94FF40060019001A9DA
:1028D0000B48FEF759F94FF48050019001A90848C0
:1028E000FEF752F905B000BD00100240000801409B
:1028F00000100140000C0140002001400014014084
:10290000001C01400018014070B505466C6A0020AB
:10291000E085E0842046FEF7E3FF70BD0168C968EA
:1029200021F490710268D1600168496921F00101C8
:1029300002685161202180F83A10704710B50446B2
:102940002068C06820F040002168C860202084F81A
:1029500039002046FFF7D0F9002010BD70B50446BD
:1029600094F83A0022284AD1A068B0F5805F13D1CC
:10297000A56A206940B920684068C0F30800288033
:10298000A06A801CA06219E020684068C0B228805C
:10299000A06A401CA06211E0206938B92068406834
:1029A000C1B2A26A501CA062117007E020684068A2
:1029B00000F07F01A26A501CA0621170E08D401EE1
:1029C00080B2E085C8B92068C06820F02000216886
:1029D000C8602068C06820F480702168C8602068E2
:1029E000406920F0010021684861202084F83A0005
:1029F0002046FFF715F9002070BD0020FCE70220FB
:102A0000FAE7000070B504462168096921F44051D5
:102A1000E2681143226811612269A1681143626969
:102A200041EA02052168C96841F20C6291432943D9
:102A30002268D1602168496921F44071A26911437B
:102A400022685161564A2168914254D1FEF7D6FB63
:102A500000EBC00101EB001162689200B1FBF2F1E2
:102A600000EBC00202EB001263689B00B2FBF3F2C2
:102A70006423B2FBF3F202EBC20303EB0212A1EBFD
:102A80008201322202EB01116422B1FBF2F101F06A
:102A9000F00100EBC00202EB001263689B00B2FB86
:102AA000F3F26423B2FBF3F201EB021200EBC0017C
:102AB00001EB001163689B00B1FBF3F100EBC00375
:102AC00003EB00136668B600B3FBF6F36426B3FBB2
:102AD000F6F303EBC30606EB0313A1EB83013223EA
:102AE00003EB01116423B1FBF3F101F00F01114479
:102AF0002268916053E0FEF771FB00EBC00101EB2F
:102B0000001162689200B1FBF2F100EBC00202EB2F
:102B1000001263689B00B2FBF3F26423B2FBF3F292
:102B200002EBC20303EB0212A1EB8201322202EBA1
:102B300001116422B1FBF2F101F0F00100EBC002DF
:102B400002EB001263689B00B2FBF3F26423B2FB5A
:102B5000F3F201EB021200EBC00101EB001163681C
:102B60009B00B1FBF3F100EBC00303EB00136668BD
:102B7000B600B3FBF6F36426B3FBF6F303EBC30630
:102B800006EB0313A1EB8301322303EB0111642352
:102B9000B1FBF3F101F00F0111442268916070BDA7
:102BA00000380140014691F8390021282CD188686D
:102BB000B0F5805F0FD10A6A1088C0F308000B6877
:102BC0005860086918B9086A801C086209E0086A38
:102BD000401C086205E00B6A581C086218780B68F4
:102BE0005860C88C401E80B2C88458B90868C06854
:102BF00020F080000B68D8600868C06840F0400092
:102C00000B68D860002070470220FCE72DE9F041F6
:102C100004460D4617469846069E21E0701CF8B102
:102C20002EB1FEF75FF9A0EB0800B04218D920687A
:102C3000C06820F4D0702168C8602068406920F026
:102C4000010021684861202084F8390084F83A00A6
:102C500000BF002084F8380000BF0320BDE8F081E9
:102C6000206800682840A84201D1012000E000202F
:102C7000B842D3D00020F1E708B530480068C068FA
:102C800000F02000002854D02C4800684068C0B2F2
:102C900000909DF80000082817D1294800780028E6
:102CA00043D0082000F0E4F8202000F0E1F80820EC
:102CB00000F0DEF822480078401E2149087000210B
:102CC00020481F4A127881542FE01D480078FF28C1
:102CD00011DA9DF800001B49194A12788854002126
:102CE000184A17480078401C115415480078401CB9
:102CF0001349087009E09DF8001011480078401E43
:102D0000104A1154082000F0B3F89DF800000D2877
:102D100003D09DF800000A2803D101200A49087059
:102D200003E09DF8000000F0A3F808480349096893
:102D300008600248FEF7D6FD08BD0000D400002060
:102D40001A000020140100201B000020DFFFFFEF0D
:102D500070B53B480068C06800F02000002869D0CA
:102D6000374800684068C4B236480078C8B9552C66
:102D700010D135480078401C334908700846007867
:102D800002280ED10020087001202E4908702F491A
:102D9000087006E000202B4908702C4908702A4969
:102DA000087028480078002840D029482749097829
:102DB00020F8114025480078022814D124482349DE
:102DC000097810F811002349087008460078022895
:102DD00003DB08460078082805DD02201D4908703D
:102DE00000201849087019480078401C17490870DD
:102DF0000846017817480078801C814216D1164891
:102E0000007880B9012014490870012506E01048B7
:102E100030F8151011A000F037F86D1C082DF6DB06
:102E200010A000F031F80020064908700E4804494F
:102E30000968086002F0D0FD0148FEF753FD70BD3F
:102E4000340300200E0000200F000020110000209D
:102E500074000020100000200D00002020202578A4
:102E600020202C000D0A0000DFFFFFEF00BFFEE76F
:102E700001B54FF47A73012269460248FEF7D1FE8C
:102E800008BD0000D40000200FB4054B10B503A905
:102E9000044A029800F0F6F810BC5DF814FB00003C
:102EA0008D3C00087000002002480068C0F302203A
:102EB000704700000CED00E010B5002804DB0A07A5
:102EC000130E054A135406E00A07140E034A00F0D5
:102ED0000F031B1FD45410BD00E400E018ED00E008
:102EE00002E008C8121F08C1002AFAD170477047D3
:102EF000002001E001C1121F002AFBD17047000031
:102F00002DE9FF5F82B00021DDE90430020DDDF81C
:102F100040B0034318D044F61050A2F2FF324243AF
:102F20001514119801281FD0A5EB0B00401C5FEA77
:102F3000000A4FF000064E4FDFF83891B046504679
:102F400015D5CAF1000413E0119801244AA3012801
:102F500001D16FEA0B010298119AC0E90031C0E972
:102F6000024206B0BDE8F09FCBF10000DFE7044667
:102F70000021404A491842EB0450CDE9001012E00C
:102F8000E00707D032463B4640464946FDF750FB36
:102F90008046894632463B4610461946FDF748FBB7
:102FA00006460F466410002CEAD1DDE90401DDE994
:102FB0000023BAF1000F06DAFDF73AFB42464B4612
:102FC000FDF736FB05E0FDF7F1F842464B46FDF70D
:102FD000EDF804460E460022284BFDF773F903D89E
:102FE0004FF0FF30014607E00022254B20463146D6
:102FF000FDF777FAFDF78EFB102409E0002C0ADBC1
:103000000A220023FDF7A8F9039B30321A55641EEB
:1030100050EA0102F2D1641C039AC4F11103144472
:10302000119A012A03D0012208430DD10AE0084376
:1030300004D000204FF0110B119072E7A3EB0B05A9
:103040006D1E0DE05B4504DD4FF0000205F101054A
:1030500004E003DA4FF00002A5F10105002AECD0EC
:1030600002981199C0E90231C0E9004579E70000F2
:10307000000014400000F03F300000000000F0436A
:103080000000E03F2DE9FF4F95B09B46894606467C
:1030900000250FE2252877D100242746F84A012190
:1030A000059400E0044316F8013F203B01FA03F0C9
:1030B0001042F7D130782A2811D06FF02F033078E2
:1030C000A0F13002092A16D8059A44F0020402EB56
:1030D000820203EB42021044761C0590EFE759F898
:1030E000042B0592002A03DA504244F40054059060
:1030F00044F00204761C30782E2816D116F8010F01
:1031000044F004042A280DD06FF02F023078A0F18B
:103110003003092B09D807EB870302EB4303C718D9
:10312000761CF3E759F8047B761C30786C280FD0B6
:1031300006DC4C2817D068280DD06A2814D104E08A
:10314000742810D07A280FD10DE044F400140AE05E
:1031500044F4801401E044F440147278824202D1B5
:1031600004F58014761C761C307866280BD013DCAE
:10317000582877D009DC002875D04528F6D0462895
:10318000F4D047281AD19DE118E0632835D064288F
:1031900079D0652812D195E1702873D008DC6728B2
:1031A000F1D069286FD06E280DD06F2806D1B5E018
:1031B00073282CD0752875D0782874D05A46179962
:1031C00090476D1C75E1C4F30250022809D0032812
:1031D0000DD0D9F8001004280DD00D6009F10409B4
:1031E00067E1D9F80010EA17C1E90052F6E7D9F80B
:1031F00000100D80F2E70D70F0E719F8041B8DF850
:10320000001000208DF80100EA46012003E059F883
:1032100004AB4FF0FF3061074FF0000102D40DE026
:1032200008F101018846B9420FDA8045F8DB1AF847
:1032300008100029F4D108E008F101018846814214
:10324000FADB1AF808100029F6D105985B46A0EBC6
:10325000080721463846179A00F094FA284400EBF4
:10326000080507E04DE029E10DE01AF8010B5A4688
:1032700017999047B8F10108F7D25B4621463846C6
:10328000179A13E142E00A220092C4F302524FF06F
:10329000000A022A08D059F804CB032A4FEAEC713D
:1032A0000AD00DE029E02AE009F1070121F0070228
:1032B000F2E802C1914609E00FFA8CFC4FEAEC718A
:1032C000042A03D14FFA8CFC4FEAEC71002907DA8B
:1032D0000A460021DCF1000C61EB02012D2202E024
:1032E000220504D52B228DF80420012203E0E207F9
:1032F00001D02022F7E7904659E00A2102E010228F
:103300000DE010214FF0000A00910BE010224FF069
:10331000000A44F004040827009203E008224FF05A
:10332000000A0092C4F30252022A05D059F804CBD5
:103330000021032A08D009E009F1070121F0070262
:10334000F2E802C1914605E01FFA8CFC042A01D183
:103350000CF0FF0C4FF00008220728D5702806D08B
:10336000009B83F0100353EA0A0305D00EE04022CD
:103370008DF80420012208E05CEA010206D0302228
:103380008DF804208DF8050002229046009B83F002
:10339000080353EA0A030AD15CEA010201D1620779
:1033A00005D530228DF804204FF001087F1E5828E3
:1033B00004D034A003900EA802900DE036A0F9E7E7
:1033C00053466046009AFCF7C7FF84460398825C28
:1033D0000298401E029002705CEA0100F0D102984F
:1033E00006A9081A00F1200A600702D524F48034E7
:1033F00000E00127574502DDA7EB0A0000E00020AE
:1034000000EB0A01009005984144401A0590E00342
:1034100006D45B462146179A059800F0B3F9054497
:10342000002706E001A85A46C05D179990476D1C19
:103430007F1C4745F6DBE0030CD55B462146179A17
:10344000059800F09FF9054404E030205A4617998A
:1034500090476D1C0099481E00900029F5DC08E09B
:10346000029802995A460078491C02911799904790
:103470006D1CBAF10001AAF1010AF1DC65E100005E
:10348000092801003031323334353637383961623A
:1034900063646566000000003031323334353637FE
:1034A00038394142434445460000000000F058F9D5
:1034B0000544761C307800287FF4ECAD19B028461E
:1034C000BDE8F08F620700D4062709F1070222F059
:1034D000070CFCE80223E14603F000485FEA080C11
:1034E00002D00FF2702C0DE05FEA045C02D50FF2FF
:1034F000682C07E05FEAC47C02D00FF2602C01E088
:10350000AFF2700C4FF0FF3823F00043CDF850C0FD
:1035100065280CD006DC452809D046281DD0472850
:103520003DD13DE0662818D067287ED138E00021E3
:10353000112F01DB112000E0781CCDE9000106A964
:103540000EA8FFF7DDFCDDE90F010E9A03910021C3
:10355000009207F1010A04914DE04FF000400097FE
:10356000CDE9011006A90EA8FFF7CAFCDDE90F029C
:1035700003920E9B11990022DDF80CA00093049297
:1035800011B9791C00EB010AB7EB0A0004D4C0F1B1
:10359000FF3007F1010A0490AAEB0700019044E014
:1035A000012F00DA01270021112F01DD112000E099
:1035B0003846CDE9000106A90EA8FFF7A1FCDDE918
:1035C0000F010E9A0391002104910092BA4621073F
:1035D0000CD40399514500DA8A46BAF1010F05DD92
:1035E000009AAAF10101515C302908D0B84202DAF0
:1035F00010F1040F06DA0121CDE9011015E0AAF15E
:103600000101E9E7002805DC049901440491AAEBD3
:10361000000102E0411C514500DD8A460499401A30
:10362000401C01904FF000400290200704D4019804
:10363000504501DBCDF8048000208DF84F00029842
:103640000DF14F07B0F1004F25D02B200E900298BE
:103650004FF0020800280CDA404202902D200E9014
:1036600007E00A210298FCF761FE3031029007F86A
:10367000011DB8F10001A8F10108F2DC0298002850
:10368000EFD1791E0E980870307800F0200040F0DD
:10369000450007F8020D12A8C01B00F10708149896
:1036A000007800B1012000EB0A01019801EBE07104
:1036B00005984144401A401E0590E00306D45B463D
:1036C0002146179A059800F05DF805441498007893
:1036D00018B15A46179990476D1CE00324D55B46F4
:1036E0002146179A059800F04DF805441CE004980F
:1036F000002807DBDDE90301884203DD0098405C18
:10370000179901E0179930205A469047049805F11F
:103710000105401C04900198401E019004D12E2008
:103720005A46179990476D1CBAF10001AAF1010A97
:10373000DDDC05E017F8010B5A46179990476D1C20
:10374000B8F10001A8F10108F4DC5B462146179AA4
:103750000598ABE62D0000002B00000020000000C3
:103760002DE9F041044600251E461746880404D47E
:1037700005E039462020B0476D1C641EF9D5284667
:10378000BDE8F0812DE9F041044600251E46904633
:10379000C80301D5302700E02027880404D505E0C0
:1037A00041463846B0476D1C641EF9D52846BDE831
:1037B000F081000070B504460D4633480068A04211
:1037C00031D132480068401B002814DD30480068C1
:1037D000042806D1012001F005FA03202C490860D5
:1037E00050E02B490968C1F1030001F071FA032090
:1037F0002749086046E025480068401B42D5244818
:103800000068042806D1012001F062FA0120204955
:10381000086037E01E490968481E01F0E3F90120FD
:103820001B4908602EE018480068001B002813DDC3
:1038300017480068012805D101F0D4F90420144983
:1038400008601FE012490968C1F1040001F040FA64
:1038500004200F49086015E00B480068001B11D5D3
:103860000B480068012805D101F032FA022008490E
:10387000086007E006490968881E01F0B3F90220D4
:103880000349086070BD0000580000205C00002063
:103890006000002010B52448006802280DDD224891
:1038A0000068072809DA21480068072805D10621A1
:1038B0001D480068FFF77EFF34E01B4800680228BF
:1038C0000DDD19480068072809DA18480068022841
:1038D00005D1032114480068FFF76CFF22E013486C
:1038E000006802280DDD11480068072809DA0E4833
:1038F0000068022805D10D4801680320FFF75AFF30
:1039000010E00A48006802280CDD08480068072813
:1039100008DA05480068072804D104480168062031
:10392000FFF748FF10BD0000580000205C00002099
:1039300010B51C480068032809DD1B4800680928E9
:1039400005D10A2117480068FFF734FF28E0154821
:103950000068062809DA1448006830B94FF0FF31D2
:1039600010480068FFF726FF1AE00E48006850B9BB
:103970000D480068032806DD0B4801684FF0FF3052
:10398000FFF718FF0CE007480068092808D106482F
:103990000068062804DA044801680A20FFF70AFFD5
:1039A00010BD0000580000205C00002010B51F482A
:1039B000006803280BDD1E480068092807D11C4851
:1039C00001681A480068401CFFF7F4FE2CE0174815
:1039D000006806280ADA1648006838B913490968E9
:1039E000481E13490968FFF7E5FE1DE00F4800680F
:1039F00058B90F480068032807DD0D480168491CC5
:103A00000A480068FFF7D6FE0EE00848006809285B
:103A10000AD107480068062806DA05480068411EF2
:103A200002480068FFF7C6FE10BD000058000020E5
:103A30005C00002010B500240121022002F036F8BD
:103A400002F08AFA0446052C22DD0121162002F03C
:103A50002DF80121032002F029F802F07DFA044636
:103A6000022C03DD0121172002F020F80121084675
:103A700002F01CF802F070FA0446022C03DD01216A
:103A8000152002F013F80121052002F00FF803E0E1
:103A90000121052002F00AF802F05EFA0446052C26
:103AA0001DDD0121192002F001F80121062001F09D
:103AB000FDFF02F051FA0446022C03DD01211A2019
:103AC00001F0F4FF0121042001F0F0FF02F044FABC
:103AD0000446022C03DD0121182001F0E7FF01213B
:103AE000002001F0E3FF10BD31B50024012269463A
:103AF000352002F065FB3220FCF7DAFE11E000F021
:103B000041F89DF80010884203D03220FCF7D0FE27
:103B100001E0012038BD601CC4B2502C01DD002042
:103B2000F8E7ECE704480078032801D0002070474C
:103B30000248407840B2FAE769000020740400208F
:103B40002DE9F8430C480078032802D00020BDE896
:103B5000F8830A4840880090BDF80000FCF795FB08
:103B60008046FCF79BFB06460022054BFCF71EFB3C
:103B70000446FCF7BFFBEAE769000020740400205C
:103B80000088C34008B501226946352001F00CFFCA
:103B90009DF8000008BD000010B50121002001F0D3
:103BA00085FF00200E49086010E001F0F9FF40F2A7
:103BB000DC5000F0E6FF0B48C06C10B10948C06E45
:103BC00020B907480068401C05490860044800689F
:103BD0000128EADB02F040F903A0FFF755F910BD18
:103BE0003C000020140200200D0AB5B1C7B0D7B4C4
:103BF000CCACA3BAC7B0BDF8B5BDC6F0CABCCEBB8D
:103C00000000000010B5FFF7C7FF00F099FA10BDE3
:103C100010B542F21070FCF74BFE42F21070FCF748
:103C200047FE42F21070FCF743FE42F21070FCF7C0
:103C30003FFE42F21070FCF73BFE42F21070FCF7C0
:103C400037FE42F21070FCF733FE42F21070FCF7C0
:103C50002FFE42F21070FCF72BFE42F21070FCF7C0
:103C600027FE42F21070FCF723FE42F21070FCF7C0
:103C70001FFE42F21070FCF71BFE42F21070FCF7C0
:103C800017FE42F21070FCF713FE10BD13B50C4680
:103C90004FF47A73012269460248FDF7C2FF00988B
:103CA0001CBD0000D400002010B533A0FFF7ECF8D5
:103CB000FFF7A8FF0421002000F032FB05210020BF
:103CC00000F02EFB0621002000F02AFB0721002037
:103CD00000F026FB0821002000F022FB0921002033
:103CE00000F01EFB0921042000F01AFB0921052029
:103CF00000F016FB0921062000F012FB0921072025
:103D000000F00EFB0921082000F00AFB09210846FB
:103D100000F006FB0521092000F002FB0421092028
:103D200000F0FEFA0321092000F0FAFA022109202E
:103D300000F0F6FA0121092000F0F2FA0021092032
:103D400000F0EEFA0021052000F0EAFA002104203C
:103D500000F0E6FA0021032000F0E2FA0021022040
:103D600000F0DEFA0021012000F0DAFA0021084616
:103D700000F0D6FA10BD00000D0AC2B7BEB6312061
:103D80000000000010B52BA0FFF77EF8FFF73AFF08
:103D90000421002000F0C4FA0521002000F0C0FA40
:103DA0000621002000F0BCFA0721002000F0B8FA3C
:103DB0000821002000F0B4FA0921002000F0B0FA38
:103DC0000921042000F0ACFA0921052000F0A8FA2E
:103DD0000921062000F0A4FA0921072000F0A0FA2A
:103DE0000921082000F09CFA0921084600F098FA01
:103DF0000521092000F094FA0421092000F090FA2E
:103E00000321092000F08CFA0221092000F088FA31
:103E10000121092000F084FA0021092000F080FA35
:103E20000021012000F07CFA0021084600F078FA19
:103E300010BD00000D0AC2B7BEB63420000000005D
:103E400010B527A0FFF720F8FFF7A6FE01211C20E0
:103E500001F02CFE0221012000F0AEFB01210846FA
:103E600000F0AAFB01211B2001F020FE0121072008
:103E700000F0A2FB0521072000F09EFB0521092090
:103E800000F09AFB0421092000F04AFA03210920DE
:103E900000F046FA0221092000F042FA012109202F
:103EA00000F03EFA0021092000F03AFA0021052036
:103EB00000F036FA0021042000F032FA002103203D
:103EC00000F02EFA0021022000F02AFA0021012041
:103ED00000F026FA0021084600F022FA10BD00008A
:103EE0000D0AC2B7BEB635200000000010B533A0E1
:103EF000FEF7CAFFFFF786FE0421002000F0DAFA81
:103F00000521002000F0D6FA0621002000F0D2FAA8
:103F10000721002000F0CEFA0821002000F0CAFAA4
:103F20000921002000F0C6FA0921042000F0C2FA9D
:103F30000921052000F0BEFA0921062000F0BAFA96
:103F40000921072000F0B6FA0921082000F0B2FA92
:103F50000921084600F0AEFA0521092000F0AAFA6E
:103F60000421092000F0A6FA0321092000F0A2FA9A
:103F70000221092000F09EFA0121092000F09AFA9E
:103F80000021092000F096FA0021052000F092FAA5
:103F90000021042000F08EFA0021032000F08AFAAC
:103FA0000021022000F086FA0021012000F082FAB0
:103FB0000021084600F07EFA10BD00000D0AC2B7CD
:103FC000BEB632200000000070B53CA0FEF75CFFDA
:103FD000FFF718FE00240025002605E0311D002013
:103FE00000F0FEF90444761C062EF7DB002623E0E1
:103FF000301D092100F0F4F904441E2C1BDB0921BB
:10400000022000F0C5F808210220FFF7D3FB0021B1
:10401000022000F0BDF800210120FFF7CBFB0121B9
:10402000002000F07DF90021084600F079F96D1CB0
:10403000FFF7EEFD0A26761C062ED9DB05BB00260F
:104040001CE0C6F10501092000F0CAF904441E2C49
:1040500013DB0021092000F09BF800210820FFF766
:10406000A9FB0121002000F05BF90021084600F0C7
:1040700057F96D1CFFF7CCFD0A26761C062EE0DBF7
:10408000D5B9002616E0C6F10500002100F0A8F918
:1040900004441E2C0DDB032E0BDA0121002000F05E
:1040A0003FF90021084600F03BF96D1CFFF7B0FD19
:1040B0000A26761C062EE6DB70BD00000D0AC2B78C
:1040C000BEB63320000000001B480068032809DD4D
:1040D000194800680A2805DA18480068092801D13B
:1040E0000120704714480068002808DB1248006867
:1040F000062804DA1148006808B90220F1E70F48E1
:104100000068032808DD0D4800680A2804DA0A4818
:10411000006808B90220E4E708480068002809DBC5
:1041200006480068062805DA03480068092801D116
:104130000120D6E70320D4E7580000205C000020CF
:1041400010B501211C2001F0B1FC0121084600F04E
:1041500011FA01211B2001F0A9FC02210120FFF727
:1041600029FB022000F0D8FB012000F03BFD0120DC
:1041700000F0D2FB012000F0ABFD002002490860F6
:1041800003200249086010BD580000205C00002098
:1041900070B504460D465F480068A04259D15E489C
:1041A0000068401B002828DD5C48006804280BD10B
:1041B000012000F017FD032058490860564909689E
:1041C000481B00F0A9FB9FE054480068012805D176
:1041D00051490968481B00F037FC95E04F490968D0
:1041E000C1F1030000F074FD4B490968481B00F061
:1041F00093FB03204949086086E047480068401B5C
:10420000E1D54648006804280BD1012000F060FD8C
:1042100041490968681A00F07FFB01203F490860A6
:1042200072E03E480068032805D13B490968681AD6
:1042300000F00AFC68E039490968481E00F0D2FC29
:1042400035490968681A00F067FB012033490860A6
:104250005AE031480068A84256D12E480068001B39
:10426000002827DD2D48006801280AD100F0BAFC9B
:1042700028490968081B00F04FFB04202749086003
:1042800042E026480068022805D122490968081B37
:1042900000F0DAFB38E021490968C1F1040000F0C0
:1042A00017FD1C490968081B00F036FB04201B4958
:1042B000086029E017480068001B25D517480068EA
:1042C00001280AD100F004FD12490968601A00F0C3
:1042D00023FB02201149086016E0104800680428FA
:1042E00005D10C490968601A00F0AEFB0CE00B49DF
:1042F0000968881E00F076FC06490968601A00F01B
:104300000BFB022005490860024804600248056072
:1043100070BD0000580000205C00002060000020FC
:1043200070B505460E463146284600F045F9002492
:104330000121022001F0BAFB01F00EFE0446052C1B
:1043400022DD0121162001F0B1FB0121032001F043
:10435000ADFB01F001FE0446022C03DD0121172014
:1043600001F0A4FB0121084601F0A0FB01F0F4FDDF
:104370000446022C03DD0121152001F097FB0121E9
:10438000052001F093FB03E00121052001F08EFBE5
:1043900001F0E2FD0446052C1DDD0121192001F08C
:1043A00085FB0121062001F081FB01F0D5FD0446CB
:1043B000022C03DD01211A2001F078FB01210420E9
:1043C00001F074FB01F0C8FD0446022C03DD01215D
:1043D000182001F06BFB0121002001F067FB70BD8C
:1043E0002DE9F04106460F4600243946304600F0DC
:1043F000E3F800250121022001F058FB01F0ACFD9B
:104400000546052D25DD0121162001F04FFB641C1A
:104410000121032001F04AFB01F09EFD0546022D1B
:1044200004DD0121172001F041FB641C0121084635
:1044300001F03CFB01F090FD0546022D04DD012159
:10444000152001F033FB641C0121052001F02EFB37
:1044500003E00121052001F029FB01F07DFD054667
:10446000052D20DD0121192001F020FB641C012114
:10447000062001F01BFB01F06FFD0546022D04DD57
:1044800001211A2001F012FB641C0121042001F01B
:104490000DFB01F061FD0546022D04DD0121182010
:1044A00001F004FB641C0121002001F0FFFA20460A
:1044B000BDE8F08170B505460E463146284600F04D
:1044C0007BF800240121022001F0F0FA01F0D6FD72
:1044D0000446052C22DD0121162001F0E7FA012116
:1044E000032001F0E3FA01F0C9FD0446022C03DDCC
:1044F0000121172001F0DAFA0121084601F0D6FA6D
:1045000001F0BCFD0446022C03DD0121152001F061
:10451000CDFA0121052001F0C9FA03E001210520AF
:1045200001F0C4FA01F0AAFD0446052C1DDD0121AD
:10453000192001F0BBFA0121062001F0B7FA01F0C1
:104540009DFD0446022C03DD01211A2001F0AEFA84
:104550000121042001F0AAFA01F090FD0446022C8A
:1045600003DD0121182001F0A1FA0121002001F052
:104570009DFA70BD70B505460C462146284601F0EF
:104580008DF9022D0EDD072D0CDA022C0ADD072C29
:1045900008DA2146284600F09BF82146284600F01C
:1045A0002DF805E02146284600F0CAF8FFF7C0F9CB
:1045B0003220FCF77DF970BD70B505460C462146EA
:1045C000284601F06BF9022D0EDD072D0CDA022CC6
:1045D0000ADD072C08DA2146284600F079F8214642
:1045E000284600F00BF805E02146284600F0A8F820
:1045F000FFF7DCF93220FCF75BF970BD70B50546BA
:104600000C46032D15D1032C13D12F4800682F49D8
:104610000968884206DD0321022000F091F800F0CD
:1046200087FC4FE00221032000F08AF800F080FCB4
:1046300048E0062D15D1062C13D1234800682349E4
:104640000968884206DD0721062000F079F800F0AD
:104650006FFC37E00621072000F072F800F068FCDC
:1046600030E0062D16D1032C14D1174800681749E5
:10467000096808440A2806DA0221062000F060F8DA
:1046800000F056FC1EE00321072000F059F800F06E
:104690004FFC17E0032D15D1062C13D10A480068F2
:1046A0000A49096808440A2806DA0621022000F0AF
:1046B00047F800F03DFC05E00721032000F040F83A
:1046C00000F036FC70BD00005C00002058000020A7
:1046D00070B504460D46032C0ADD062C08DA062DBB
:1046E00006D1691C204600F02BF800F021FC25E0E3
:1046F000032D0ADD062D08DA032C06D1601E29469B
:1047000000F01EF800F014FC18E0032D0ADD062D61
:1047100008DA062C06D12946601C00F011F800F0DA
:1047200007FC0BE0032C09DD062C07DA032D05D16D
:10473000691E204600F004F800F0FAFB70BD00008E
:1047400070B505460C46022D0BDD072D09DA214612
:1047500022480068FFF71CFD21462846FFF718FD98
:104760003AE0022C0BDD072C09DA1D4801682846C7
:10477000FFF70EFD21462846FFF70AFD2CE01848FA
:10478000006802280DDD16480068072809DA21466E
:1047900012480068FFF7FCFC21462846FFF7F8FCAA
:1047A0001AE00E48006802280DDD0C480068072852
:1047B00009DA0B4801682846FFF7EAFC214628463B
:1047C000FFF7E6FC08E0064801682846FFF7E0FC32
:1047D00021462846FFF7DCFC70BD00005800002091
:1047E0005C00002010B52848006802284BDD2648F0
:1047F0000068072847DA25480068022843DD234877
:10480000006807283FDA22490868C11700EB917158
:104810008910A0EB8101012905D11C480068401EC8
:104820001A4908602DE01A490868C11700EB917118
:104830008910A0EB8101022905D113480068401EB0
:10484000114908601DE012490868C11700EB917119
:104850008910A0EB8101032905D10C480068401C98
:104860000A4908600DE00A490868C11700EB917118
:104870008910A0EB810121B903480068401C02495E
:10488000086000F0BDFA10BD580000205C00002058
:104890006000002010B5044601F094FA01F0C8FA57
:1048A000A0B201F097FAA0B201F0CAFA012001F01B
:1048B00069FA012001F09AFA10BD000008B5FCF772
:1048C00023FBFDF7E8FB4820FDF782FB00BF114802
:1048D000806940F001000F4988610846806900F056
:1048E0000100009000BF00BFFDF7DAFEFBF77EFF7E
:1048F000FBF75EFFFDF7A4FB00F012FBFDF728FAC3
:104900000320FFF7F1F8012001F02AFA00F060FB24
:1049100000BFFEE70010024010B5044600203449F5
:1049200008603449086034490860344908603449F3
:1049300008603449086051E001F032F900F012F9E2
:104940003148006A10B93048C06B28B12E48406A1F
:1049500058B92D48806B40B92948006828B92BA068
:10496000FEF792FA0120264908602748006810B92E
:104970002548C06928B12448406858B92248806950
:1049800040B91E48006828B922A0FEF77DFA012030
:104990001A4908601A48006801281FD117480068A2
:1049A00001281BD11848C06E10B11748C06CA8B9B7
:1049B000002010490860104908601049086010493B
:1049C0000860104908600A480068401C08490860EF
:1049D00012A0FEF759FA16A0FEF756FA044800682E
:1049E000A042A9DB1E20FBF763FF01F035FA10BDE2
:1049F0003C000020280000202C0000201C0000208B
:104A00003000002034000020140200206261636B3B
:104A10000D0A000066726F6E740D0A0062726561A5
:104A20006B20476F7374726169676874200D0A00A8
:104A30000D0AB5B1C7B0D7B4CCACA3BACFF2C7B0EA
:104A4000D0D0BDF831B8F10010B504460020384987
:104A500008603849086038490860384908603849B2
:104A600008605BE001F09CF800F09CF835480068B5
:104A700010B93448C06928B13248406828B9314873
:104A8000806910B901202D4908602E48006E10B1D0
:104A90002C48006C48B927480068012805D12648F1
:104AA000006810B90220244908602648006A10B93D
:104AB0002448C06B28B12348406A28B92148806B3C
:104AC00010B901201E4908601E48C06F10B11D4872
:104AD000C06D10B901201749086019480068012805
:104AE0001CD116480068012818D11648006D10B175
:104AF0001448006F90B900200E4908600E49086004
:104B00000E4908600E4908600F49086008480068AF
:104B1000401C074908600DA0FEF7B6F9044800687C
:104B2000A0429FDB1E20FBF7C3FE01F095F910BDEC
:104B30003C000020280000202C0000201C00002049
:104B40003000002014020020340000200D0AB5B10E
:104B5000C7B0D7B4CCACA3BACFF2BAF3D0D0BDF8BB
:104B600031B8F10010B501F02DF901F061F9002024
:104B700001F008F9012001F039F9012000F024FBCF
:104B800010BD10B5044601F01DF901F051F90020E7
:104B900001F0F8F8012001F029F92146012000F088
:104BA000C9FC10BD10B501F00DF901F041F901206B
:104BB00001F0E8F8002001F019F9002000F004FBF2
:104BC00010BD10B5044601F0FDF801F031F90120E7
:104BD00001F0D8F8002001F009F92146002000F08A
:104BE000A9FC10BD70B50446002559E000F0D8FFBF
:104BF00040F2DC50FFF74EFE2B48C068012809D177
:104C000029480069012805D12848006810B9012009
:104C1000264908602448806D10B12348C06D28B92A
:104C20002348006810B90120214908601E48006E21
:104C300010B11D48406E28B91E48006810B9012007
:104C40001C49086019480068012829D118480068E3
:104C5000012825D117480068012821D11248C068D1
:104C600010B91148C06A58B10F48006910B90E4810
:104C7000006B28B10C48006990B90B48C06878B93E
:104C800001F0EAF8C820FBF713FE0020074908608E
:104C900007490860074908606D1C07A0FEF7F4F893
:104CA000A542A3DB70BD0000140200201C00002000
:104CB00020000020240000200D0AB5B1C7B0D7B4F1
:104CC000CCACA3BAD7F3D7AAC1CB3930B6C8000051
:104CD00070B50446002562E000F062FF40F2DC504F
:104CE00000F0D0FE2F48C06801280CD12D48006983
:104CF000012808D12C48006828B92CA0FEF7C4F878
:104D00000120294908602748806F10B12548C06FED
:104D100040B92B48006828B92AA0FEF7B5F8012051
:104D2000274908601F48406C10B11E48006C40B90C
:104D30002848006828B928A0FEF7A6F801202549D0
:104D4000086019480068012829D122480068012814
:104D500025D11B480068012821D11248C06810B92C
:104D60001048C06A58B10F48006910B90D48006B6F
:104D700028B10C48006990B90A48C06878B901F0B8
:104D80006BF8C820FBF794FD002007490860114923
:104D900008600B4908606D1C13A0FEF775F8A5426A
:104DA0009ADB70BD140200201C000020D5FDB7BDA9
:104DB000CFF2C6ABC0EBB0D7CFDF0D0A00000000CA
:104DC00024000020D3D2B2E0BEADB9FDB0D7CFDF12
:104DD0000D0A000020000020D7F3B2E0BEADB9FDFF
:104DE000B0D7CFDF0D0A00000D0AB5B1C7B0D7B4F8
:104DF000CCACA3BAD3D2D7AAC1CB3930B6C8000045
:104E000010B5002014490860144908601EE000F045
:104E1000C7FE4FF47A70FFF7D4FE1148C06C10B192
:104E20000F48C06E90B901F017F800200D490860D6
:104E30000D4908600D490860084908600648006887
:104E4000401C054908600AA0FEF71EF802480068E9
:104E50000128DCDB10BD00003C00002034000020F5
:104E600014020020280000201C0000203000002038
:104E70000D0AB5B1C7B0D7B4CCACA3BAD4B6C0EBA9
:104E800045C7F80010B50020194908602AE000F075
:104E900087FE4FF47A70FFF774FE1648006A10B16F
:104EA0001448C06B10B9012013490860124800680B
:104EB000012817D17D20FBF7FBFC00F0CDFF00207F
:104EC0000E4908600E4908600E4908600A490860EA
:104ED0000D49086006480068401C054908600BA0A1
:104EE000FDF7D2FF024800680128D0DB10BD0000AA
:104EF0003C00002014020020300000202800002088
:104F00002C0000201C000020340000200D0AB5B148
:104F1000C7B0D7B4CCACA3BABFBFBEAD45C7F800CD
:104F200010B5FDF721FBFDF725FBFBF7FDFC10BDE0
:104F300010B5FEF7AFFC23490868C11700EB91716B
:104F40008910A0EB8101012905D11F480068401C90
:104F50001D4908602DE01B490868C11700EB9171DD
:104F60008910A0EB8101022905D118480068401C76
:104F7000164908601DE013490868C11700EB9171DC
:104F80008910A0EB8101032905D10F480068401E5C
:104F90000D4908600DE00B490868C11700EB9171DD
:104FA0008910A0EB810121B908480068401E07491B
:104FB0000860FFF767FF00F04FFF4FF4C870FBF782
:104FC00077FC10BD600000205C000020580000202D
:104FD0002DE9F0410024002600274FF001080025AC
:104FE00049A0FDF751FF89E0002500F099FD002060
:104FF00007E0494951F8201011B9022800D06D1C72
:10500000401C0528F5DB4448006870B9012D0CD11F
:105010005CB942A0FDF738FFFEF7FAFDFEF744FE4B
:1050200044A0FDF731FF641C34E03B48406870B990
:10503000012D0CD15CB941A0FDF726FFFEF7E8FD7C
:10504000FEF754FF3BA0FDF71FFF641C22E032482F
:10505000C06870B9012D0CD15CB93EA0FDF714FFFA
:10506000FEF7D6FDFEF7B0FF32A0FDF70DFF641C82
:1050700010E02948006968B9012D0BD154B93BA053
:10508000FDF702FFFEF7C4FDFEF77CFE29A0FDF749
:10509000FBFE641C2048406948B944B939A0FDF7BB
:1050A000F3FEFEF7CDFE23A0FDF7EEFE641C1A48CA
:1050B000806940B93EB939A0FDF7E6FEFEF7BAFCBB
:1050C000FEF7B8FC761C1448806948B1012E07D160
:1050D00037A0FDF7D9FE0121002000F0E7FC0026F3
:1050E0000D48C06918B9002000F03AFE02E0012026
:1050F00000F036FE4FF4FA70FBF7DAFB4745FFF697
:1051000073AFBDE8F08100000D0AB2A6C2EBC6F78E
:105110007374617274000000B40000200D0AB2A61E
:10512000C2EBC6F731C6F4D3C3A3BAC2B7BEB63119
:10513000200000000D0A646F6E6520000D0AB2A603
:10514000C2EBC6F732C6F4D3C3A3BAC2B7BEB632F7
:10515000000000000D0AB2A6C2EBC6F734C6F4D3B5
:10516000C3A3BAC2B7BEB633000000000D0AB2A690
:10517000C2EBC6F735C6F4D3C3A3BAC2B7BEB634C2
:10518000000000000D0AB2A6C2EBC6F736C6F4D383
:10519000C3A3BAC2B7BEB635000000000D0AB2A65E
:1051A000C2EBC6F737C6F4D3C3A3BAB2E2CAD4007F
:1051B0000D0AB2A6C2EBC6F737C6F4A1A2B8B4D3A3
:1051C000C3A3BAB8B4CEBB002DE9F041074600F046
:1051D000E7FC4FF4FA64012F7ED1D3480068002821
:1051E00064D1D148C069002860D1CF48006AC0F1BD
:1051F0000100CE49096800FB1141CB48406AC0F16B
:105200000100CA4A526800FB1211C748806AC0F107
:105210000100C64A926800FB1211C348C06BC0F17E
:105220000100C24A126800FB0211BF48806BC0F146
:105230000100BE4A526800FB0211BB48406BC0F13E
:105240000100BA4A926800FB0215B748006AC0F133
:105250000100B649096800FB0141B348406AC0F14A
:105260000100B24A526800FB0211AF48806AC0F1E7
:105270000100AE4A926800FB0211AB48C06BC0F15E
:105280000100AA4A126800FB1211A748806BC0F106
:105290000100A64A526800FB1211A348406BC0F1FE
:1052A0000100A24A926800FB121661E09E48006865
:1052B000C0F101009E49096800FB11409A49496804
:1052C000C1F101019A4A526801FB120096498968AE
:1052D000C1F10101964A00E050E0926801FB120022
:1052E0009149C969C1F10101914A126801FB0201AA
:1052F0008D488069C0F101008D4A526800FB02119F
:1053000089484069C0F10100894A926800FB021592
:1053100085480068C0F101008549096800FB01402B
:1053200081494968C1F10101814A526801FB0200CB
:105330007D498968C1F101017D4A926801FB020142
:105340007948C069C0F10100794A126800FB121067
:1053500075498969C1F10101754A526801FB120161
:1053600071484069C0F10100714A926800FB121651
:10537000A8B200F02FFDB0B200F062FD002F7DD189
:105380006948006A002864D16748C06B002860D172
:1053900065480068C0F101006449096800FB0140EC
:1053A00061494968C1F10101604A526801FB02018B
:1053B0005D488068C0F101005C4A926800FB021100
:1053C0005948C069C0F10100584A126800FB121127
:1053D00055488069C0F10100544A526800FB12111F
:1053E00051484069C0F10100504A926800FB121513
:1053F0004D480068C0F101004C49096800FB1140AC
:1054000049494968C1F10101484A526801FB12004B
:1054100045498968C1F10101444A926801FB1201C2
:105420004148C069C0F10100404A126800FB021007
:105430003D498969C1F101013C4A526801FB020002
:1054400039494969C1F10101384A926801FB0206F4
:1054500061E03548006AC0F101003549096800FB88
:1054600001413148406AC0F10100314A526800FBF5
:1054700002112D48806AC0F1010000E051E02C4A81
:10548000926800FB02112848C06BC0F10100284A55
:10549000126800FB12112448806BC0F10100244AFD
:1054A000526800FB12112048406BC0F10100204AF5
:1054B000926800FB12151C48006AC0F101001C49EB
:1054C000096800FB11411848406AC0F10100184A00
:1054D000526800FB12111448806AC0F10100144A9E
:1054E000926800FB12111048C06BC0F10100104A15
:1054F000126800FB02110C48806BC0F101000C4ADD
:10550000526800FB02110848406BC0F10100084AD4
:10551000926800FB0216A8B200F05CFCB0B200F08A
:105520008FFCBDE8F0810000140200204C00002038
:10553000400000202DE9F04107460C4600F030FB0A
:10554000012F7DD1D2480068002864D1D048C069BD
:10555000002860D1CE48006AC0F10100CD49096839
:1055600000FB1141CA48406AC0F10100C94A5268B3
:1055700000FB1211C648806AC0F10100C54A92685A
:1055800000FB1211C248C06BC0F10100C14A126891
:1055900000FB0211BE48806BC0F10100BD4A526899
:1055A00000FB0211BA48406BC0F10100B94A926891
:1055B00000FB0215B648006AC0F10100B549096850
:1055C00000FB0141B248406AC0F10100B14A526893
:1055D00000FB0211AE48806AC0F10100AD4A92683A
:1055E00000FB0211AA48C06BC0F10100A94A126871
:1055F00000FB1211A648806BC0F10100A54A526859
:1056000000FB1211A248406BC0F10100A14A926850
:1056100000FB121661E09E480068C0F101009E493F
:10562000096800FB11409A494968C1F101019A4A91
:10563000526801FB120096498968C1F1010100E03E
:1056400051E0954A926801FB12019148C069C0F18E
:105650000100914A126800FB02118D488069C0F177
:1056600001008D4A526800FB021089494969C1F165
:105670000101894A926801FB020585480068C0F172
:1056800001008549096800FB014181484068C0F17B
:105690000100814A526800FB02117D488068C0F118
:1056A00001007D4A926800FB02117948C069C0F18F
:1056B0000100794A126800FB121075498969C1F12D
:1056C0000101754A526801FB120071494969C1F133
:1056D0000101714A926801FB1206A8B200F07AFB40
:1056E000B0B200F0ADFB002F7ED16948006A0028FF
:1056F00064D16748C06B002860D165480068C0F17C
:1057000001006449096800FB014061494968C1F131
:105710000101604A526801FB02005D498968C1F1DC
:1057200001015C4A926801FB02005949C969C1F153
:105730000101584A126801FB120055498969C1F1FB
:105740000101544A526801FB120051494969C1F1F3
:105750000101504A926801FB12054D480068C0F1F2
:1057600001004C49096800FB114049494968C1F1F1
:105770000101484A526801FB120045498968C1F19C
:105780000101444A926801FB12014148C069C0F11D
:105790000100404A126800FB02103D498969C1F1CD
:1057A00001013C4A526801FB020139484069C0F1DD
:1057B0000100384A926800FB021661E03448006A32
:1057C000C0F101003449096800FB01413048406ADA
:1057D000C0F10100304A526800FB02112C48806A77
:1057E000C0F101002C4A00E050E0926800FB021179
:1057F0002748C06BC0F10100274A126800FB121154
:105800002348806BC0F10100234A526800FB12114B
:105810001F48406BC0F101001F4A926800FB12153F
:105820001B48006AC0F101001B49096800FB1141D7
:105830001748406AC0F10100174A526800FB121174
:105840001348806AC0F10100134A926800FB1211EC
:105850000F48C06BC0F101000F4A126800FB021133
:105860000B48806BC0F101000B4A526800FB02112B
:105870000748406BC0F10100074A926800FB02161E
:10588000A8B200F0A7FAB0B200F0DAFABDE8F081F1
:10589000140200204C0000204000002070B5054696
:1058A0000C46FEF79FFF022D29DD072D27DA2A4837
:1058B0000068022823DD2848006807281FDA2748E7
:1058C0000068001B032804DC24480068201A032811
:1058D00015DD214800682844092805DB1F480168B8
:1058E0000720FEF72DFF35E01B48006828440928F3
:1058F00030DA1A4801680220FEF722FF2AE0022C63
:1059000028DD072C26DA15480068022822DD134816
:10591000006807281EDA10480068401B032804DCD2
:105920000D480068281A032814DD0C48006820443C
:10593000092805DB072108480068FEF701FF09E098
:10594000064800682044092804DA02210248006859
:10595000FEF7F6FE70BD0000580000205C0000203D
:1059600070B50446FCF7B4FA6420FCF77DFAFCF746
:10597000FBFAE0B2FCF778FAFCF7F6FA200AFCF73B
:1059800073FAFCF7F1FAFCF7C9FAFCF7A1FA652003
:10599000FCF76AFAFCF7E8FA0020FCF72DFA054656
:1059A000FCF7BCFA284670BD2DE9F04105460C46CF
:1059B00016460027B84609E028466A1C95B2FFF74C
:1059C000CFFF04F8010B7F1C08F10108B045F3DBA1
:1059D0003846BDE8F081000010B51EA0FDF754FA6E
:1059E0001E480078002833D000201C4908701C484D
:1059F0008079062802D0082811D105E019480078DE
:105A0000401C1849087018E01648017816A0FDF7E8
:105A10003BFA14480078401C1249087000BF01246A
:105A200005E00F48015D14A0FDF72EFA641C082C58
:105A3000F7DB10A0FDF728FA00BF00BF0948007887
:105A4000022805D101200E49087000200549087080
:105A500010BD000073746172742020000D000020DE
:105A60007400002064000020695F636D6473746FCC
:105A7000703A25640D0A0000257820402C000000B3
:105A80006800002010B5044600F09CF900F0D0F941
:105A9000A0B200F09FF9A0B200F0D2F9002000F00F
:105AA00071F9002000F0A2F910BD000070B50546A4
:105AB0000C46552010494870087005208870062053
:105AC000C870084605714C712012887107210A4878
:105AD00000F0D0F9294609A0FDF7D6F900BF0B4820
