:020000040800F2
:100000001807002089010008B10E0008B30E00088F
:10001000B70E0008BB0E0008BF0E0008000000006D
:10002000000000000000000000000000C30E0008F7
:10003000C50E000800000000C70E0008C90E000829
:10004000A3010008A3010008A3010008A301000800
:10005000A3010008A3010008A3010008A3010008F0
:10006000A3010008A3010008A3010008A3010008E0
:10007000A3010008A3010008A3010008A3010008D0
:10008000A3010008A3010008A3010008A3010008C0
:10009000A3010008A3010008A3010008A3010008B0
:1000A000A3010008A3010008A3010008A3010008A0
:1000B000A3010008A3010008A3010008A301000890
:1000C000A3010008A3010008A3010008A301000880
:1000D000A301000819120008A3010008A3010008E9
:1000E000A3010008A3010008A301000800F002F822
:1000F00000F03AF80AA090E8000C82448344AAF188
:100100000107DA4501D100F02FF8AFF2090EBAE885
:100110000F0013F0010F18BFFB1A43F0010318473B
:100120006823000088230000103A24BF78C878C1F3
:10013000FAD8520724BF30C830C144BF04680C60ED
:10014000704700000023002400250026103A28BF35
:1001500078C1FBD8520728BF30C148BF0B60704739
:100160001FB51FBD10B510BD01F05CFE1146FFF7B5
:10017000F7FF00F01BFE01F08EFE03B4FFF7F2FF65
:1001800003BC00F0E9FF0000094880470948004728
:10019000FEE7FEE7FEE7FEE7FEE7FEE7FEE7FEE737
:1001A000FEE7FEE704480549054A064B7047000094
:1001B000AB0F0008ED000008180100201807002010
:1001C000180300201803002031490143314A11600F
:1001D000704770B5002100230F22C47804B32D4C62
:1001E000246804F4E064C4F5E064210AC1F1040366
:1001F000CA40447804FA03F1847814402143090189
:10020000254C0678A155047804F01F050124AC4064
:1002100005786D11AD0005F1E025C5F8004109E054
:10022000047804F01F050124AC401C4D06787611BB
:1002300045F8264070BD1A4A0A400243154B1B1F61
:100240001A60704739B1134A121D12680243114BEC
:100250001B1D1A6006E00F4A121D126882430D4BE7
:100260001B1D1A607047042808D14FF0E02109696E
:1002700041F004014FF0E022116107E04FF0E0216E
:10028000096921F004014FF0E0221161704700007C
:100290000000FA050CED00E000E400E080E100E081
:1002A00080FFFF1F10B50446CC48844208D10121CD
:1002B000042000F02DFB0021042000F029FB46E083
:1002C000C748844208D10121082000F021FB002109
:1002D000082000F01DFB3AE0C248844208D1012109
:1002E000102000F015FB0021102000F011FB2EE083
:1002F000BD48844208D10121202000F009FB0021E3
:10030000202000F005FB22E0B848844208D10121FA
:10031000402000F0FDFA0021402000F0F9FA16E03C
:10032000B348844208D10121802000F0F1FA002175
:10033000802000F0EDFA0AE0AE48844207D10121A6
:10034000801500F0E5FA0021A01500F0E1FA10BDDB
:1003500010B50121084600F0DBFA0021012000F071
:10036000D7FA10BD2DE9F0410246002500260020F5
:1003700000230024002791F803C00CF00F0591F82A
:1003800003C00CF0100CBCF1000F03D091F802C0B8
:100390004CEA050591F800C0BCF1000F31D014689B
:1003A00000202BE04FF0010C0CFA00F3B1F800C074
:1003B0000CEA03069E4220D183004FF00F0C0CFA8A
:1003C00003F7BC4305FA03FC4CEA040491F803C0AC
:1003D000BCF1280F06D14FF0010C0CFA00FCC2F85A
:1003E00014C00AE091F803C0BCF1480F05D14FF0EA
:1003F000010C0CFA00FCC2F810C0401C0828D1D334
:100400001460B1F800C0BCF1FF0F34DD5468002067
:100410002EE000F1080C4FF0010808FA0CF3B1F8D7
:1004200000C00CEA03069E4221D183004FF00F0C5E
:100430000CFA03F7BC4305FA03FC4CEA040491F8F8
:1004400003C0BCF1280F05D100F1080C08FA0CF824
:10045000C2F8148091F803C0BCF1480F07D100F135
:10046000080C4FF0010808FA0CF8C2F81080401C84
:100470000828CED35460BDE8F0814FF6FF710180AB
:10048000022181700421C1707047024600209368E8
:100490000B400BB1012000E0002070470146886846
:1004A00080B2704702460020D3680B400BB1012098
:1004B00000E0002070470146C86880B270470161C3
:1004C0007047416170470AB1016100E041617047C6
:1004D000C16070474FF480320A438261816182615A
:1004E00082698269704702460020434B18684FF6C4
:1004F0008073184040EA021008433F4B1860704771
:100500003E49C8617047F0B50A4600230024002127
:10051000002500F00046B6F1004F02D1364EF169D9
:1005200001E0354E7168C0F3034583B200F4401614
:10053000B6F5401F08D121F070612F4E766826F085
:1005400070662D4F7E6012E000F48016B6F5801FB5
:1005500006D1032606FA05F4A14341F0706106E0D6
:10056000460D360103FA06F6B14341F0706122B13F
:10057000460D360103FA06F6314300F00046B6F1A7
:10058000004F02D11C4EF16101E01B4E7160F0BDC5
:1005900030B500228B071C0F0F2303FA04F2164B11
:1005A00008338C1053F824309343134C08348D10C7
:1005B00044F8253023468C1053F824308C07240F40
:1005C00000FA04F423430C4C08348D1044F8253011
:1005D00030BD0A49DC310860704700000008014066
:1005E000000C0140001001400014014000180140BF
:1005F000001C01400020014000000140000020429A
:10060000DF48006840F00100DD49086008464068A6
:10061000DC490840DA49486008460068DA49084081
:10062000D74908600846006820F480200860084622
:10063000406820F4FE0048604FF41F008860704757
:10064000CF49096821F48031CD4A1160114609680B
:1006500021F480211160B0F5803F03D0B0F5802FE8
:100660000ED106E0C649096841F48031C44A1160E0
:1006700007E0C349096841F4A021C14A116000E0C4
:1006800000BF00BF704710B50146002200230020C4
:100690004A11012A02D1BA4C236806E0022A02D18B
:1006A000B74C236A01E0B64C636A01F01F020124D3
:1006B00094401C400CB1012000E0002010BD38B572
:1006C000002000900024002500BF3120FFF7DBFF51
:1006D00005460098401C00900098B0F5A06F01D02E
:1006E000002DF2D03120FFF7CEFF08B1012400E049
:1006F0000024204638BD01460020A14A106820F0A1
:10070000F80040EAC10010607047A04908607047D7
:10071000024600209A4B586820F47C1042EA0103FC
:100720001843974B586070479849086670470146D0
:100730000020934A506820F003000843506070473F
:100740008F48406800F00C007047014600208C4A3A
:10075000506820F0F00008435060704701460020C8
:10076000874A506820F4E0600843506070470146B3
:100770000020834A506820F4605040EAC100506075
:10078000704729B17E4A527A02437D4B5A7204E087
:100790007B4A527A82437A4B5A7270477B49D831EE
:1007A0000860704701460020754A506820F44040B8
:1007B0000843506070470021714A20321170704A1E
:1007C00082F82010012802D004280AD104E0012177
:1007D0006B4A2032117005E00521694A2032117000
:1007E00000E000BF00BF7047694908607047644976
:1007F000096A0143624A11627047654944390860D9
:10080000704730B500210022002400235C4D6D6844
:1008100005F00C0121B1042905D0082923D105E0F8
:100820005C4D056022E05B4D05601FE0544D6D6836
:1008300005F47012524D6D6805F48034022505EB05
:1008400092421CB9544D554305600BE04C4D6D6808
:1008500005F400351DB1504D5543056002E04D4D86
:100860005543056002E04B4D056000BF00BF444D9D
:100870006D6805F0F0010909484D6B5C0568DD40C5
:1008800045603F4D6D6805F4E061090A434D6B5CBE
:100890004568DD4085603A4D6D6805F46051C90AD0
:1008A0003E4D6B5C4568DD40C560354D6D6805F4B7
:1008B0004041890B3A4D6B5CC568B5FBF3F50561AA
:1008C00030BD29B12E4A526902432D4B5A6104E0D2
:1008D0002B4A526982432A4B5A61704729B1284AF0
:1008E00092690243264B9A6104E0254A9269824349
:1008F000234B9A61704729B1214AD2690243204BA8
:10090000DA6104E01E4AD26982431D4BDA61704706
:1009100029B11B4AD2680243194BDA6004E0184A35
:10092000D2688243164BDA60704729B1144A1269C3
:100930000243134B1A6104E0114A12698243104BBF
:100940001A61704712494039086070470F49C864FE
:1009500070470B49C87170470948406A40F0807081
:1009600007494862704701460020054A92680A40DC
:100970000AB1012000E000207047014988727047E9
:10098000001002400000FFF8FFFFF6FE00004242A8
:100990008004424200127A0000093D00000000205D
:1009A0001000002010B50446FB48844209D1012103
:1009B0008803FFF7ADFF00214FF48040FFF7A8FF49
:1009C00032E0F648844209D101214804FFF7ADFF27
:1009D00000214FF40030FFF7A8FF25E0F0488442E3
:1009E00009D101218804FFF7A0FF00214FF48020E6
:1009F000FFF79BFF18E0EB48844209D10121C804AE
:100A0000FFF793FF00214FF40020FFF78EFF0BE06C
:100A1000E548844208D101210805FFF786FF00213F
:100A20004FF48010FFF781FF10BD2DE9F04786B02D
:100A300005460E460024A24600BFA1460027B08905
:100A400000B100BF2F462C8A4CF6FF700440F0889E
:100A500004432C82AC894EF6F3100440B0883189EF
:100A60000843718908430443AC81AC8A4FF6FF40C8
:100A70000440B0890443AC8201A8FFF7C2FEC64817
:100A8000874202D1DDF810A001E0DDF80CA0A889B2
:100A900000F4004040B10AEBCA0000EB0A103168D4
:100AA0004900B0FBF1F807E00AEBCA0000EB0A10BE
:100AB00031688900B0FBF1F86420B8FBF0F0040164
:100AC0002009642101FB1089A88900F4004040B18D
:100AD000322000EBC900B0FBF1F000F00700044346
:100AE00008E0322000EB09106421B0FBF1F000F0C7
:100AF0000F0004432C8106B0BDE8F0874FF4165177
:100B0000016000218180C18001810C21418100218F
:100B10008181704710B502460020108A4FF2FF0312
:100B200018400B884C8823438C882343CC8823436C
:100B30001843108210BD0021018041808180C18056
:100B4000704721B1828942F40052828104E0828997
:100B50004DF6FF731A4082817047F0B503460024BA
:100B600000260025002040F66A17B94200D100BFD8
:100B70001846C1F3421401F01F06012707FA06F5D3
:100B8000012C01D10C3004E0022C01D1103000E026
:100B900014301AB107682F43076002E00768AF43BB
:100BA0000760F0BD1AB1838A0B43838202E0838A17
:100BB0008B4383827047028A4FF6F0731A40028299
:100BC000028A0A430282704782894FF2FF731A40F9
:100BD000828182890A438281704721B1828942F0F1
:100BE0000202828104E082894FF6FD731A408281FD
:100BF0007047028A4FF6DF731A400282028A0A4364
:100C00000282704721B1028A42F48042028204E0EB
:100C1000028A4BF6FF731A4002827047C1F3080242
:100C20008280704701468888C0F308007047818938
:100C300041F0010181817047028BD2B20283028BA5
:100C400042EA012202837047028B02F47F42028350
:100C5000028B0A430283704721B1828A42F020024C
:100C6000828204E0828A4FF6DF731A4082827047E4
:100C700021B1828A42F01002828204E0828A4FF619
:100C8000EF731A408282704721B1828A42F00802D3
:100C9000828204E0828A4FF6F7731A40828270479C
:100CA00021B1828942F40042828103E08289C2F349
:100CB0000E028281704721B1828A42F400628282F0
:100CC00004E0828A4FF2FF731A4082827047828A60
:100CD0004FF6FB731A408282828A0A4382827047EF
:100CE00021B1828A42F00202828204E0828A4FF6B7
:100CF000FD731A408282704702460020B1F5007FE2
:100D000000D100BF13880B400BB1012000E0002090
:100D1000704701F40072B2F5007F00D100BFCA43F2
:100D20000280704770B50246002400230025002091
:100D300040F66A16B14200D100BFC1F3421501F07E
:100D40001F03012606FA03F3012D02D196893340D1
:100D500006E0022D02D1168A334001E0968A334024
:100D60000C12012606FA04F41688344013B10CB1B3
:100D7000012000E0002070BD10B50022002340F6E5
:100D80006A14A14200D100BF0A1201249440A3B208
:100D9000DC43048010BD00000038014000440040E6
:100DA00000480040004C00400050004000F0FDF8BA
:100DB0004FF4A060FFF708FA482000F077F900F040
:100DC00051FA642000F08CF900F0D8F94FF47A70F1
:100DD00000F086F91EA000F0BFFF1EA000F0BCFFCF
:100DE000032000F0BEFB012000F0D9FB2FE000F053
:100DF00059FF00F005FD044600F00CFD074638469B
:100E000001F0B2FA0546154A154B01F077FA1AD2ED
:100E1000022C03DA13A000F09FFF14E0052C03DA84
:100E200012A000F099FF0EE0082C03DA13A000F0E6
:100E300093FF08E00B2C03DA15A000F08DFF02E011
:100E400017A000F089FF642000F04AF900BFCEE748
:100E50002000000073746172740D0A009A999999C8
:100E60009999D93F4E6F6E650D0A00004861726D09
:100E700066756C2057617374650D0A00526563795D
:100E8000636C61626C652077617374650D0A0000A4
:100E900057657420676172626167650D0A00000022
:100EA00044727920676172626167650D0A00000013
:100EB000704700BFFEE700BFFEE700BFFEE700BFD0
:100EC000FEE7704770477047704700000CB5002080
:100ED000019000906C48006840F480306A490860D6
:100EE00000BF6948006800F4003000900198401C81
:100EF0000190009818B90198B0F5A06FF1D162483F
:100F0000006800F4003010B10120009001E00020E2
:100F100000900098012843D15C48006840F0100020
:100F20005A4908600846006820F003000860084637
:100F3000006840F002000860534840685249486029
:100F40000846406848600846406840F48060486051
:100F50000846406820F47C1048600846406840F429
:100F6000E81048600846006840F08070086000BFE4
:100F70004548006800F000700028F9D042484068F9
:100F800020F00300404948600846406840F00200F5
:100F9000486000BF3C48406800F00C000828F9D1C8
:100FA0000CBD10B5FFF792FF10BD10B536480068B4
:100FB00040F0010034490860084640683449084060
:100FC0003149486008460068324908402E490860A7
:100FD0000846006820F4802008600846406820F435
:100FE000FE0048604FF41F008860FFF7DAFF4FF003
:100FF00000602949086010BD10B5002100200022C2
:10100000214B5B6803F00C0121B1042906D00829AB
:1010100028D107E0214B224C236027E01F4B204CB6
:10102000236023E0184B5B6803F47010164B5B6879
:1010300003F48032022303EB904022B9194B43435F
:10104000174C23600DE0104B5B6803F4003323B1B1
:10105000144B4343124C236003E0104B4343104CAA
:10106000236003E00D4B0E4C236000BF00BF064B16
:101070005B68C3F303130C4CE15C094B1B68CB406A
:10108000074C236010BD0000001002400020024009
:101090000000FFF8FFFFF6FE08ED00E000127A0006
:1010A0001400002000093D001800002010B504467F
:1010B0006FF00400FFF7D7F8E11704EB5171C1F3AB
:1010C000C701234A11701046007800EB4001C1EBC4
:1010D000C0104FF6FF7101EAC0001E49088010BD24
:1010E00001461C4A12884A434FF0E0235A6100220D
:1010F0009A6101221A6100BF4FF0E022106900F0EE
:1011000001021AB100F48032002AF5D000224FF01B
:10111000E0231A619A61704701460D4A12784A43EA
:101120004FF0E0235A6100229A6101221A6100BF48
:101130004FF0E022106900F001021AB100F4803291
:10114000002AF5D000224FF0E0231A619A6170471F
:10115000280000202A00002000BF704770B5044618
:101160000D46E1B22D48FFF759FD00BF40212B4845
:10117000FFF7C2FD0028F9D0204670BD00B587B04A
:10118000012144F20500FFF7A9FB4FF40070ADF810
:10119000140003208DF8160018208DF8170005A9FB
:1011A0001F48FFF7DFF84FF48060ADF814004820C7
:1011B0008DF8170005A91A48FFF7D4F84FF4165018
:1011C00001900020ADF80800ADF80A00ADF80C0061
:1011D000ADF810000C20ADF80E0001A90F48FFF784
:1011E00024FC012240F225510C48FFF7B6FC0121F6
:1011F0000A48FFF7A6FC25208DF8180001208DF87D
:10120000190000208DF81A0001208DF81B0006A897
:10121000FEF7DFFF07B000BD704700000038014057
:101220000008014008B54FF48050ADF800000320DD
:101230008DF8020010208DF8030069468048FFF702
:1012400091F808BD08B54FF48050ADF800000320B8
:101250008DF8020048208DF8030069467848FFF7B2
:1012600081F808BD08B501210820FFF737FB41F2DE
:101270000200ADF8000010208DF8030003208DF867
:10128000020069466E48FFF76DF841F202016C48B2
:10129000FFF715F908BD10B5FFF7C4FF0120694934
:1012A00008606949C1F884010520FFF735FF002077
:1012B000644908600520FFF72FFF00206249C1F84C
:1012C000840110BD10B5FFF7ADFF00205D492C393A
:1012D00008605D49C1F8B0010520FFF71DFF01203E
:1012E00058492C3908605849C1F8B0010520FFF76A
:1012F00013FF10BD10B5002052492C390860FFF7CC
:1013000091FF00205049C1F8B0010220FFF704FF0F
:1013100001204C492C3908600220FFF7FDFE002017
:101320004949C1F8840110BD10B5002045492C3948
:101330000860FFF777FF01204349C1F8B0010220A0
:10134000FFF7EAFE01203F492C3908600220FFF731
:10135000E3FE00203C49C1F8840110BD10B5002413
:10136000FFF770FF012037490860FFF7D5FE012025
:101370003549C1F88401FFF7CFFE07E0601CC4B215
:10138000FA2C03DDFFF79EFF012010BD2D488038A9
:1013900000680028F2D12B492C39086000BFF4E71F
:1013A00070B504460025FFF73DFF002025492C3984
:1013B000086000BF17E0E009224908606006040EDB
:1013C0000220FFF7A9FE01201F49C1F88401022075
:1013D000FFF7A2FE00201B492C3908600220FFF70E
:1013E0009BFE681CC5B2082DE5DB70BD70B50546D7
:1013F00000260024FFF726FF00BF17E00020114958
:101400002C3908600220FFF787FE01200E49C1F841
:1014100084016006040E0B488038006808B1601C27
:10142000C4B20120FFF778FE701CC6B2082EE5DBBF
:1014300015B9FFF779FF01E0FFF75CFF204670BDAB
:10144000000C0140B08121420080214270B5044669
:10145000FFF721FF6420FFF7A3FFFFF77FFFE0B254
:10146000FFF79EFFFFF77AFF200AFFF799FFFFF7CC
:1014700075FFFFF727FFFFF70EFF6520FFF790FFCF
:10148000FFF76CFF0020FFF7B1FF0546FFF71AFFDB
:10149000284670BD70B505460C46FFF7FCFEEE20F1
:1014A000FFF77EFFFFF75AFF2846FFF779FFFFF7A8
:1014B00055FF2046FFF774FFFFF750FFFFF702FFCD
:1014C00070BD70472DE9F04105460C4616460027D1
:1014D000B84609E028466A1C95B2FFF7B7FF04F842
:1014E000010B7F1C08F10108B045F3DB3846BDE86D
:1014F000F0812DE9F04104460D461646FFF7CBFE7C
:101500006420FFF74DFFFFF729FFE0B2FFF748FF28
:10151000FFF724FF200AFFF743FF002706E0FFF74D
:101520001DFF15F8010BFFF73BFF7F1CB742F6DBF1
:10153000FFF714FFFFF7C6FE3046BDE8F08110B597
:101540000446102221460020FFF7BCFF012010BDF9
:1015500008B5012269463520FFF7B4FF9DF8000069
:1015600008BD31B50024012269463520FFF7C1FFCF
:101570003220FFF7B5FD11E0FFF7EAFF9DF80010FC
:10158000884203D03220FFF7ABFD01E0012038BDD7
:10159000601CC4B2502C01DD0020F8E7ECE71CB55C
:1015A0000446F6A0006801900CB1012000E0002084
:1015B0000090012269463020FFF79BFF1CBDF048D8
:1015C0000078012807D1EF484078002801DD01208C
:1015D00070470020FCE70020FAE7E948007801287E
:1015E00002D1E848407870470020FCE7E4480078E2
:1015F000012807D1E3488078002801DD01207047E9
:101600000020FCE70020FAE7DD480078012802D13D
:10161000DC48807870470020FCE7D9480078012832
:1016200007D1D848C078002801DD0120704700208C
:10163000FCE70020FAE7D2480078012801D1D14820
:1016400070470020FCE70246CD48007801280AD107
:10165000042106E0CB48405C904201D10120704754
:10166000491C2129F6DB0020F9E72DE9F041064667
:101670000F46002038607860B860F860C048007895
:10168000012802D00020BDE8F081042413E0BD4809
:10169000005DB0420ED1201F85B2302000EB051056
:1016A00085B205F5806188B210223946FFF70AFF3E
:1016B0000120E8E7641C212CE9DB0020E3E72DE9A9
:1016C000F04105460F46002038607860B860F86049
:1016D000AB480078012802D00020BDE8F081042446
:1016E00017E0A848005DFF2812D1681EC5B275B981
:1016F000201F86B2302000EB061086B206F580610E
:1017000088B210223946FFF7DDFE0120E5E700BF71
:10171000641C212CE5DB0020DFE7994800780228D3
:1017200001D00020704797484078002801DD012053
:10173000F8E70020F6E792480078022801D0002060
:1017400070479048407840B2FAE702468C480078EB
:10175000022801D000207047022106E08948405C41
:10176000904201D10120F6E7491C1F29F6DB002039
:10177000F1E7024682480078022801D00020704735
:101780000021022005E07F4B1B5C934200D1491CE5
:10179000401C1F28F7DB0846F1E72DE9F04107461A
:1017A0000D461646002030607060B060F0607448EE
:1017B0000078022802D00020BDE8F0810220044613
:1017C0001AE07048005DB84201D1681EC5B28DB9FB
:1017D000A11E4FF4036202EB011188B210223146C0
:1017E000FFF770FE8046B8F1100F01D00020E3E74C
:1017F0000120E1E7601C04461F2CE2DB00BFDBE7B1
:101800005F480078032801D0002070475D48407889
:1018100040B2FAE72DE9F84359480078032802D08E
:101820000020BDE8F883574840880090BDF80000CC
:1018300000F0C6FD804600F097FD06460022524BA0
:1018400000F074FB044600F033FBEAE72DE9F843AF
:1018500004464B480078032802D00020BDE8F883F6
:10186000601E102101EB800046490844008800906A
:10187000BDF8000000F0A4FD814600F075FD0746AC
:101880000022414B00F052FB054600F011FBE5E75A
:101890003B480078042801D0002070473948407840
:1018A00040B2FAE72DE9F84335480078042802D021
:1018B0000020BDE8F883334840880090BDF8000060
:1018C00000F07EFD804600F04FFD064600222E4BC4
:1018D00000F02CFB044600F0EBFAEAE72DE9F843B0
:1018E000044627480078042802D00020BDE8F88389
:1018F000601E102101EB80002249084400880090FE
:10190000BDF8000000F05CFD814600F02DFD0746AB
:1019100000221D4B00F00AFB054600F0C9FAE5E77E
:1019200017480078072801D00020704715484078F4
:10193000002801DD0120F8E70020F6E710480078D4
:10194000072801D0002070470E484078FBE7024688
:101950000B480078072801D00020704709484378D9
:10196000022106E00748405C904201D10120F4E7E3
:10197000491C981C8842F5DC0020EEE7300000008E
:1019800030000020340000200088C34010B501461C
:101990000023EE480078072801D0002010BDEC4855
:1019A0004278022005E0EA4C245C8C4200D15B1CAA
:1019B000401C941C8442F6DC1846EFE72DE9F04108
:1019C00007460D4616462021304600F0D1F9DF4883
:1019D0000078072802D00020BDE8F081DC4890F8AC
:1019E0000180022413E0DA48005DB8420ED16D1E7A
:1019F00065B9A11E41F63062322303FB012188B292
:101A000020223146FFF75EFD0120E5E7641C08F166
:101A10000200A042E7DC0020DEE7CC48007808287E
:101A200001D000207047CA484078002801DD01201D
:101A3000F8E70020F6E7C649C4480078082801D036
:101A400000207047088CFCE72DE9F0410446C04EA9
:101A5000358C00202070BD480078082802D0002076
:101A6000BDE8F081FFF7D9FF08B90020F8E7AAB276
:101A7000214641F63000FFF725FD07463846EFE7DF
:101A8000B2480078092801D000207047B04840785B
:101A9000002801DD0120F8E70020F6E7AC49AB485B
:101AA0000078092801D000207047088CFCE72DE958
:101AB000F0410446A64E358C00202070A3480078E3
:101AC000092802D00020BDE8F081FFF7D9FF08B94E
:101AD0000020F8E7AAB2214641F63040FFF7F2FCB9
:101AE00007463846EFE799480078052801D00020DE
:101AF000704797484078002801DD0120F8E7002072
:101B0000F6E792480078052801D0002070479048F9
:101B10004078FBE702468D480078052801D0002078
:101B200070478B484378022106E08948405C904228
:101B300001D10120F4E7491C981C8842F5DC002003
:101B4000EEE72DE9F04106460F4600203860786048
:101B5000B860F8607D480078052802D00020BDE814
:101B6000F081FFF7C0FF08B90020F8E7784890F847
:101B70000180022416E07648005DB04211D1A11E1A
:101B800041F23002102303FB012188B21A46394684
:101B9000FFF798FC0546102D01D10120DFE700205A
:101BA000DDE7641C08F10200A042E4DC00BFD6E7D8
:101BB00066480078062801D00020704764484078C5
:101BC000002801DD0120F8E70020F6E75F480078F3
:101BD000062801D0002070475D484078FBE70246A8
:101BE0005A480078062801D00020704758484378AA
:101BF000022106E05648405C904201D10120F4E702
:101C0000491C981C8842F5DC0020EEE72DE9F041E4
:101C100006460C46002020606060A060E0604B48F3
:101C20000078062802D00020BDE8F081FFF7C0FF51
:101C300008B90020F8E74648477802252DE04448D7
:101C4000405DB04228D1A91E41F23042102303FB6F
:101C5000012188B21A462146FFF734FC8046B8F1CC
:101C6000100F01D00020DFE7B4F908005A2803DD87
:101C7000B4F90800B43801E0B4F9080000B22081DA
:101C8000B4F90A00002801DB014600E04142A03916
:101C900009B261810120C7E76D1CB81CA842CEDCE7
:101CA00000BFC1E710B5012228493520FFF70AFC23
:101CB000264800780A2844D2DFE800F043050C13D8
:101CC0001A21282F363C302221494FF48060FFF73B
:101CD000F9FB37E030221E494FF40060FFF7F2FBBA
:101CE00030E080221A494FF44060FFF7EBFB29E017
:101CF000402217494FF46060FFF7E4FB22E03022F6
:101D000013494FF48050FFF7DDFB1BE030221049F0
:101D10004FF4A050FFF7D6FB14E030220C494FF4EB
:101D2000F050FFF7CFFB0DE030220949D001FFF75B
:101D3000C9FB07E0302206494FF4E050FFF7C2FB31
:101D400000BF00BF00BF012010BD00003000002018
:101D500034000020704700000FB4044910B503AAF6
:101D6000029800F031F810BC5DF814FB2C00002044
:101D70004FF0000200B5134694469646203922BF24
:101D8000A0E80C50A0E80C50B1F12001BFF4F7AF6F
:101D9000090728BFA0E80C5048BF0CC05DF804EB51
:101DA000890028BF40F8042B08BF704748BF20F8BF
:101DB000022B11F0804F18BF00F8012B70477047BD
:101DC0007047704770470000074B70B50D467B4465
:101DD00000F011F80446284600F020F810B14FF04A
:101DE000FF3070BD204670BD8BF3FFFF01694A1CB8
:101DF00002610878704700B58FB0CDE9013100214C
:101E0000059105497944CDE903101146684600F073
:101E10002EF80FB000BD0000E5FFFFFF007B00F0D3
:101E200080007047754600F03FF8AE4605006946F1
:101E3000534620F00700854618B020B5FEF7B2F9EA
:101E4000BDE820404FF000064FF000074FF00008BB
:101E50004FF0000B21F00701AC46ACE8C009ACE83C
:101E6000C009ACE8C009ACE8C0098D4670472DE94F
:101E7000F04106460024D6E90170F56880463046F8
:101E800003E04146B847641C3046A8470028F8D113
:101E90002046BDE8F08110B50446AFF3008020462F
:101EA000BDE81040FEF769B900487047B400002053
:101EB00021F00042A2F16052B2F5801F01F0004310
:101EC00028BFD2F17F6C0BD95FEA001C43EAC20243
:101ED00042EB507018BF704728BF20F001007047D8
:101EE000B2F5801FBCBF184670474FEA410C1CF585
:101EF000001F02D2084600F0C1BA70B500F0AAF97E
:101F000000000089FFF7F6BF4FF00040A0F5800009
:101F10007047491058BFC1F140415B1058BFC3F131
:101F200040438B42EFF30080704700002DE9C04131
:101F300030B4DFF8A0C23CEA111418BF3CEA131415
:101F400000F0EC8081EA03051CEA111444EAD57420
:101F500018BF1CEA131500F0C780A4EB05044FF06E
:101F6000004545EAC12145EAC32341EA505143EA0D
:101F7000525304F17F74994204F500344FEAC020B3
:101F80004FEAC22208BF904200F09C804FEA1365DE
:101F90000FF24016765D4FEA134506FB05F7C7F1D1
:101FA000807706FB07F74FEAD737A7FB036876422F
:101FB000C8F58038A7FB06CE38BFA8F1010807FB9B
:101FC00008E64FF0000EA6FB028CE6FB03CEDCF128
:101FD000000CCEF1004E38BFAEF1010EA6FB0C583E
:101FE0004FF000074FF00005E6FB0E87A1FB08C687
:101FF000A0FB07CE16EB0E0645F10005E1FB0765D9
:1020000015F1E04E7EBFA4F580345FEA46066D41CF
:1020100016F1800745F100054FEA17274FEA0666DB
:1020200047EA0567A6F1DE46B6F1805F4FEA15255F
:102030001FD9384624F0010C05EBC471BCF1FE6FCA
:1020400001EB0C1102D8F0BCBDE8008124425CBF5A
:1020500001F5801E9EEAC47F02D4F0BCBDE8008179
:10206000244238D4F0BCA1F1C041BDE8004100F0E9
:102070003FB94FEAD22242EA43524FEAD323A7FBA9
:1020800002864FEAD02040EA415007FB03661EEA71
:102090000E0F4FEAD12105FB026658BFA6EB005692
:1020A000B6EB00564FEA520E4EEAC37E18EB0E0E08
:1020B00056EB530EBDD518EB02085E417F1C55F15F
:1020C0000005B6E74FF480154FF000074FF000060B
:1020D0004FF00008ADE7F0BC4FF0000001F1C04147
:1020E00001F00041BDE8008111EA0C1F0CEA131554
:1020F00000D00CE013EA0C1F00F025804FF0000028
:10210000F0BC81EA030101F00041BDE80081F0BCB0
:10211000BDE8004181EA030100F0EAB8F0BCBDE887
:10212000004170B500F096F8097EFC3E00F007B85B
:1021300081EA03014FF0000001F00041704781EA9D
:10214000030100F0D5B8F0BCBDE800414FF000003D
:1021500021497047FFFDFBF9F7F5F4F2F0EEEDEBE6
:10216000E9E8E6E4E3E1E0DEDDDBDAD8D7D5D4D395
:10217000D1D0CFCDCCCBCAC8C7C6C5C4C2C1C0BFE1
:10218000BEBDBCBBBAB9B8B7B6B5B4B3B2B1B0AFE7
:10219000AEADACABAAA9A8A8A7A6A5A4A3A3A2A1CB
:1021A000A09F9F9E9D9C9C9B9A9999989797969586
:1021B00095949393929191908F8F8E8E8D8C8C8B22
:1021C0008B8A8989888887878685858484838382AA
:1021D000828181800000FF070000F87F51EA030C34
:1021E00017D41CF5801F58BFBCF5801F00F1068076
:1021F000994218BF704708BF9042704707D711F542
:10220000801F58BF13F5801F19D499427047894227
:1022100070471CF5801F08D5BCF5801FF7D58B4291
:1022200018BF704708BF824270474FF4001C1CEB78
:10223000410F38BF1CEB430F01D28B42704770B582
:1022400000F008F8922449004FF000514FF08053FD
:10225000FFF75FBE0EF1020E2EF0030E5EF8046B68
:10226000364205D4012A43EB030515F5001F12D8A9
:10227000012841EB010C1CF5001F0CD80ED14FEAD0
:10228000D17C15F5001F0CEB4C0C0CF1020C08BFB7
:102290004CEBD37C04E04FF0080C01E04FEAD37C18
:1022A0000CEB4C0526FA05F606F00706B6F1040C11
:1022B00006D20EEB860CBDE870404CF0010C604776
:1022C000DFE80CF0090B02024FF000414FF0000074
:1022D000A1F5002170BD19461046012851EB0104FB
:1022E00018BFD4F5001484BF002001F0004170BD78
:1022F0000808A0F500114FEA3101704753EA010CBC
:1023000017D41CF5801F58BFBCF5801F00F1068054
:102310008B4218BF704708BF8242704707D713F53A
:10232000801F58BF11F5801F19D48B4270479B4204
:1023300070471CF5801F08D5BCF5801FF7D5994262
:1023400018BF704708BF904270474FF4001C1CEB49
:10235000430F38BF1CEB410F01D2994270470FB4B5
:102360000CBC03BCFFF76BBF43004FEAD30C4FEA32
:102370003C0C43401FBF40070CF1605113F0FE4F6F
:1023800070471CF0006F03D100200CF00041704733
:102390000CF0004343EA507010B540EACC0000F066
:1023A00027F800BF000000924FEA0001FFF7A0BF2E
:1023B0004FF000414FF00000A1F5002170470000F0
:1023C00010F0004148BF4042B0FA80F310FA03F227
:1023D000C3F19D030BD051EAC35101EB1220530608
:1023E00038BF704700F1010008BF20F001007047BE
:1023F0000EF1020E2EF0030E5EF8044B244204D4BC
:102400004FEA4102B2F17F4F11D84FEA4003B3F1D6
:102410007F4F0CD80ED14FEAD07CB2F17F4F0CEB3E
:102420004C0C0CF1020C08BF4CEBD17C04E04FF0DB
:10243000080C01E04FEAD17C0CEB4C0324FA03F4C6
:1024400004F00704B4F1040C06D20EEB840CBDE8D2
:1024500010404CF0010C6047DFE80CF00708020266
:102460004FF00040A0F5800010BD0846420018BFA4
:10247000D2F1807288BF00F0004010BDFF2141EA18
:10248000D050C00570470000A824000800000020BC
:102490003400000028010008DC240008340000207B
:1024A000E4060000440100080000000001020304EB
:1024B00001020304060708090204060800A24A04F0
:1024C00000000000000000000102030406070809E4
:0C24D00000000000000000000000000000
:04000005080000ED02
:00000001FF
